{
  "_format": "hh-sol-artifact-1",
  "contractName": "LunaToken",
  "sourceName": "contracts/LunaToken.sol",
  "abi": [
    {
      "inputs": [
        {
          "internalType": "uint256",
          "name": "initialSupply",
          "type": "uint256"
        }
      ],
      "stateMutability": "nonpayable",
      "type": "constructor"
    },
    {
      "anonymous": false,
      "inputs": [
        {
          "indexed": true,
          "internalType": "address",
          "name": "owner",
          "type": "address"
        },
        {
          "indexed": true,
          "internalType": "address",
          "name": "spender",
          "type": "address"
        },
        {
          "indexed": false,
          "internalType": "uint256",
          "name": "value",
          "type": "uint256"
        }
      ],
      "name": "Approval",
      "type": "event"
    },
    {
      "anonymous": false,
      "inputs": [
        {
          "indexed": true,
          "internalType": "address",
          "name": "from",
          "type": "address"
        },
        {
          "indexed": true,
          "internalType": "address",
          "name": "to",
          "type": "address"
        },
        {
          "indexed": false,
          "internalType": "uint256",
          "name": "value",
          "type": "uint256"
        }
      ],
      "name": "Transfer",
      "type": "event"
    },
    {
      "stateMutability": "nonpayable",
      "type": "fallback"
    },
    {
      "inputs": [
        {
          "internalType": "address",
          "name": "owner",
          "type": "address"
        },
        {
          "internalType": "address",
          "name": "spender",
          "type": "address"
        }
      ],
      "name": "allowance",
      "outputs": [
        {
          "internalType": "uint256",
          "name": "",
          "type": "uint256"
        }
      ],
      "stateMutability": "view",
      "type": "function"
    },
    {
      "inputs": [
        {
          "internalType": "address",
          "name": "spender",
          "type": "address"
        },
        {
          "internalType": "uint256",
          "name": "amount",
          "type": "uint256"
        }
      ],
      "name": "approve",
      "outputs": [
        {
          "internalType": "bool",
          "name": "",
          "type": "bool"
        }
      ],
      "stateMutability": "nonpayable",
      "type": "function"
    },
    {
      "inputs": [
        {
          "internalType": "address",
          "name": "spender",
          "type": "address"
        },
        {
          "internalType": "uint256",
          "name": "amount",
          "type": "uint256"
        }
      ],
      "name": "approveAndCall",
      "outputs": [
        {
          "internalType": "bool",
          "name": "",
          "type": "bool"
        }
      ],
      "stateMutability": "nonpayable",
      "type": "function"
    },
    {
      "inputs": [
        {
          "internalType": "address",
          "name": "spender",
          "type": "address"
        },
        {
          "internalType": "uint256",
          "name": "amount",
          "type": "uint256"
        },
        {
          "internalType": "bytes",
          "name": "data",
          "type": "bytes"
        }
      ],
      "name": "approveAndCall",
      "outputs": [
        {
          "internalType": "bool",
          "name": "",
          "type": "bool"
        }
      ],
      "stateMutability": "nonpayable",
      "type": "function"
    },
    {
      "inputs": [
        {
          "internalType": "address",
          "name": "account",
          "type": "address"
        }
      ],
      "name": "balanceOf",
      "outputs": [
        {
          "internalType": "uint256",
          "name": "",
          "type": "uint256"
        }
      ],
      "stateMutability": "view",
      "type": "function"
    },
    {
      "inputs": [],
      "name": "decimals",
      "outputs": [
        {
          "internalType": "uint8",
          "name": "",
          "type": "uint8"
        }
      ],
      "stateMutability": "view",
      "type": "function"
    },
    {
      "inputs": [
        {
          "internalType": "address",
          "name": "spender",
          "type": "address"
        },
        {
          "internalType": "uint256",
          "name": "subtractedValue",
          "type": "uint256"
        }
      ],
      "name": "decreaseAllowance",
      "outputs": [
        {
          "internalType": "bool",
          "name": "",
          "type": "bool"
        }
      ],
      "stateMutability": "nonpayable",
      "type": "function"
    },
    {
      "inputs": [
        {
          "internalType": "address",
          "name": "spender",
          "type": "address"
        },
        {
          "internalType": "uint256",
          "name": "addedValue",
          "type": "uint256"
        }
      ],
      "name": "increaseAllowance",
      "outputs": [
        {
          "internalType": "bool",
          "name": "",
          "type": "bool"
        }
      ],
      "stateMutability": "nonpayable",
      "type": "function"
    },
    {
      "inputs": [],
      "name": "name",
      "outputs": [
        {
          "internalType": "string",
          "name": "",
          "type": "string"
        }
      ],
      "stateMutability": "view",
      "type": "function"
    },
    {
      "inputs": [
        {
          "internalType": "bytes4",
          "name": "interfaceId",
          "type": "bytes4"
        }
      ],
      "name": "supportsInterface",
      "outputs": [
        {
          "internalType": "bool",
          "name": "",
          "type": "bool"
        }
      ],
      "stateMutability": "view",
      "type": "function"
    },
    {
      "inputs": [],
      "name": "symbol",
      "outputs": [
        {
          "internalType": "string",
          "name": "",
          "type": "string"
        }
      ],
      "stateMutability": "view",
      "type": "function"
    },
    {
      "inputs": [],
      "name": "totalSupply",
      "outputs": [
        {
          "internalType": "uint256",
          "name": "",
          "type": "uint256"
        }
      ],
      "stateMutability": "view",
      "type": "function"
    },
    {
      "inputs": [
        {
          "internalType": "address",
          "name": "to",
          "type": "address"
        },
        {
          "internalType": "uint256",
          "name": "amount",
          "type": "uint256"
        }
      ],
      "name": "transfer",
      "outputs": [
        {
          "internalType": "bool",
          "name": "",
          "type": "bool"
        }
      ],
      "stateMutability": "nonpayable",
      "type": "function"
    },
    {
      "inputs": [
        {
          "internalType": "address",
          "name": "to",
          "type": "address"
        },
        {
          "internalType": "uint256",
          "name": "amount",
          "type": "uint256"
        }
      ],
      "name": "transferAndCall",
      "outputs": [
        {
          "internalType": "bool",
          "name": "",
          "type": "bool"
        }
      ],
      "stateMutability": "nonpayable",
      "type": "function"
    },
    {
      "inputs": [
        {
          "internalType": "address",
          "name": "to",
          "type": "address"
        },
        {
          "internalType": "uint256",
          "name": "amount",
          "type": "uint256"
        },
        {
          "internalType": "bytes",
          "name": "data",
          "type": "bytes"
        }
      ],
      "name": "transferAndCall",
      "outputs": [
        {
          "internalType": "bool",
          "name": "",
          "type": "bool"
        }
      ],
      "stateMutability": "nonpayable",
      "type": "function"
    },
    {
      "inputs": [
        {
          "internalType": "address",
          "name": "from",
          "type": "address"
        },
        {
          "internalType": "address",
          "name": "to",
          "type": "address"
        },
        {
          "internalType": "uint256",
          "name": "amount",
          "type": "uint256"
        }
      ],
      "name": "transferFrom",
      "outputs": [
        {
          "internalType": "bool",
          "name": "",
          "type": "bool"
        }
      ],
      "stateMutability": "nonpayable",
      "type": "function"
    },
    {
      "inputs": [
        {
          "internalType": "address",
          "name": "from",
          "type": "address"
        },
        {
          "internalType": "address",
          "name": "to",
          "type": "address"
        },
        {
          "internalType": "uint256",
          "name": "amount",
          "type": "uint256"
        },
        {
          "internalType": "bytes",
          "name": "data",
          "type": "bytes"
        }
      ],
      "name": "transferFromAndCall",
      "outputs": [
        {
          "internalType": "bool",
          "name": "",
          "type": "bool"
        }
      ],
      "stateMutability": "nonpayable",
      "type": "function"
    },
    {
      "inputs": [
        {
          "internalType": "address",
          "name": "from",
          "type": "address"
        },
        {
          "internalType": "address",
          "name": "to",
          "type": "address"
        },
        {
          "internalType": "uint256",
          "name": "amount",
          "type": "uint256"
        }
      ],
      "name": "transferFromAndCall",
      "outputs": [
        {
          "internalType": "bool",
          "name": "",
          "type": "bool"
        }
      ],
      "stateMutability": "nonpayable",
      "type": "function"
    }
  ],
  "bytecode": "0x60806040523480156200001157600080fd5b50604051620028d2380380620028d2833981810160405281019062000037919062000299565b6040518060400160405280600a81526020017f4c756e6120746f6b656e000000000000000000000000000000000000000000008152506040518060400160405280600381526020017f4c554e00000000000000000000000000000000000000000000000000000000008152508160039081620000b491906200053b565b508060049081620000c691906200053b565b505050620000db3382620000e260201b60201c565b506200073d565b600073ffffffffffffffffffffffffffffffffffffffff168273ffffffffffffffffffffffffffffffffffffffff160362000154576040517f08c379a00000000000000000000000000000000000000000000000000000000081526004016200014b9062000683565b60405180910390fd5b62000168600083836200024f60201b60201c565b80600260008282546200017c9190620006d4565b92505081905550806000808473ffffffffffffffffffffffffffffffffffffffff1673ffffffffffffffffffffffffffffffffffffffff168152602001908152602001600020600082825401925050819055508173ffffffffffffffffffffffffffffffffffffffff16600073ffffffffffffffffffffffffffffffffffffffff167fddf252ad1be2c89b69c2b068fc378daa952ba7f163c4a11628f55a4df523b3ef836040516200022f919062000720565b60405180910390a36200024b600083836200025460201b60201c565b5050565b505050565b505050565b600080fd5b6000819050919050565b62000273816200025e565b81146200027f57600080fd5b50565b600081519050620002938162000268565b92915050565b600060208284031215620002b257620002b162000259565b5b6000620002c28482850162000282565b91505092915050565b600081519050919050565b7f4e487b7100000000000000000000000000000000000000000000000000000000600052604160045260246000fd5b7f4e487b7100000000000000000000000000000000000000000000000000000000600052602260045260246000fd5b600060028204905060018216806200034d57607f821691505b60208210810362000363576200036262000305565b5b50919050565b60008190508160005260206000209050919050565b60006020601f8301049050919050565b600082821b905092915050565b600060088302620003cd7fffffffffffffffffffffffffffffffffffffffffffffffffffffffffffffffff826200038e565b620003d986836200038e565b95508019841693508086168417925050509392505050565b6000819050919050565b60006200041c6200041662000410846200025e565b620003f1565b6200025e565b9050919050565b6000819050919050565b6200043883620003fb565b62000450620004478262000423565b8484546200039b565b825550505050565b600090565b6200046762000458565b620004748184846200042d565b505050565b5b818110156200049c57620004906000826200045d565b6001810190506200047a565b5050565b601f821115620004eb57620004b58162000369565b620004c0846200037e565b81016020851015620004d0578190505b620004e8620004df856200037e565b83018262000479565b50505b505050565b600082821c905092915050565b60006200051060001984600802620004f0565b1980831691505092915050565b60006200052b8383620004fd565b9150826002028217905092915050565b6200054682620002cb565b67ffffffffffffffff811115620005625762000561620002d6565b5b6200056e825462000334565b6200057b828285620004a0565b600060209050601f831160018114620005b357600084156200059e578287015190505b620005aa85826200051d565b8655506200061a565b601f198416620005c38662000369565b60005b82811015620005ed57848901518255600182019150602085019450602081019050620005c6565b868310156200060d578489015162000609601f891682620004fd565b8355505b6001600288020188555050505b505050505050565b600082825260208201905092915050565b7f45524332303a206d696e7420746f20746865207a65726f206164647265737300600082015250565b60006200066b601f8362000622565b9150620006788262000633565b602082019050919050565b600060208201905081810360008301526200069e816200065c565b9050919050565b7f4e487b7100000000000000000000000000000000000000000000000000000000600052601160045260246000fd5b6000620006e1826200025e565b9150620006ee836200025e565b9250828201905080821115620007095762000708620006a5565b5b92915050565b6200071a816200025e565b82525050565b60006020820190506200073760008301846200070f565b92915050565b612185806200074d6000396000f3fe608060405234801561001057600080fd5b506004361061011a5760003560e01c80634000aea0116100a2578063a9059cbb11610071578063a9059cbb1461037e578063c1d34b89146103ae578063cae9ca51146103de578063d8fbe9941461040e578063dd62ed3e1461043e5761011b565b80634000aea0146102d057806370a082311461030057806395d89b4114610330578063a457c2d71461034e5761011b565b806318160ddd116100e957806318160ddd1461020457806323b872dd14610222578063313ce567146102525780633177029f1461027057806339509351146102a05761011b565b806301ffc9a71461015657806306fdde0314610186578063095ea7b3146101a45780631296ee62146101d45761011b565b5b6040517f08c379a000000000000000000000000000000000000000000000000000000000815260040161014d9061126c565b60405180910390fd5b610170600480360381019061016b91906112f8565b61046e565b60405161017d9190611340565b60405180910390f35b61018e6104e8565b60405161019b91906113da565b60405180910390f35b6101be60048036038101906101b99190611490565b61057a565b6040516101cb9190611340565b60405180910390f35b6101ee60048036038101906101e99190611490565b61059d565b6040516101fb9190611340565b60405180910390f35b61020c6105c1565b60405161021991906114df565b60405180910390f35b61023c600480360381019061023791906114fa565b6105cb565b6040516102499190611340565b60405180910390f35b61025a6105fa565b6040516102679190611569565b60405180910390f35b61028a60048036038101906102859190611490565b610603565b6040516102979190611340565b60405180910390f35b6102ba60048036038101906102b59190611490565b610627565b6040516102c79190611340565b60405180910390f35b6102ea60048036038101906102e591906116b9565b61065e565b6040516102f79190611340565b60405180910390f35b61031a60048036038101906103159190611728565b610689565b60405161032791906114df565b60405180910390f35b6103386106d1565b60405161034591906113da565b60405180910390f35b61036860048036038101906103639190611490565b610763565b6040516103759190611340565b60405180910390f35b61039860048036038101906103939190611490565b6107da565b6040516103a59190611340565b60405180910390f35b6103c860048036038101906103c39190611755565b6107fd565b6040516103d59190611340565b60405180910390f35b6103f860048036038101906103f391906116b9565b610823565b6040516104059190611340565b60405180910390f35b610428600480360381019061042391906114fa565b610846565b6040516104359190611340565b60405180910390f35b610458600480360381019061045391906117d8565b61086c565b60405161046591906114df565b60405180910390f35b60007fb0202a11000000000000000000000000000000000000000000000000000000007bffffffffffffffffffffffffffffffffffffffffffffffffffffffff1916827bffffffffffffffffffffffffffffffffffffffffffffffffffffffff191614806104e157506104e0826108f3565b5b9050919050565b6060600380546104f790611847565b80601f016020809104026020016040519081016040528092919081815260200182805461052390611847565b80156105705780601f1061054557610100808354040283529160200191610570565b820191906000526020600020905b81548152906001019060200180831161055357829003601f168201915b5050505050905090565b60008061058561095d565b9050610592818585610965565b600191505092915050565b60006105b983836040518060200160405280600081525061065e565b905092915050565b6000600254905090565b6000806105d661095d565b90506105e3858285610b2e565b6105ee858585610bba565b60019150509392505050565b60006012905090565b600061061f838360405180602001604052806000815250610823565b905092915050565b60008061063261095d565b9050610653818585610644858961086c565b61064e91906118a7565b610965565b600191505092915050565b600061066a84846107da565b5061067e61067661095d565b858585610e30565b600190509392505050565b60008060008373ffffffffffffffffffffffffffffffffffffffff1673ffffffffffffffffffffffffffffffffffffffff168152602001908152602001600020549050919050565b6060600480546106e090611847565b80601f016020809104026020016040519081016040528092919081815260200182805461070c90611847565b80156107595780601f1061072e57610100808354040283529160200191610759565b820191906000526020600020905b81548152906001019060200180831161073c57829003601f168201915b5050505050905090565b60008061076e61095d565b9050600061077c828661086c565b9050838110156107c1576040517f08c379a00000000000000000000000000000000000000000000000000000000081526004016107b89061194d565b60405180910390fd5b6107ce8286868403610965565b60019250505092915050565b6000806107e561095d565b90506107f2818585610bba565b600191505092915050565b600061080a8585856105cb565b5061081785858585610e30565b60019050949350505050565b600061082f848461057a565b5061083b84848461101c565b600190509392505050565b6000610863848484604051806020016040528060008152506107fd565b90509392505050565b6000600160008473ffffffffffffffffffffffffffffffffffffffff1673ffffffffffffffffffffffffffffffffffffffff16815260200190815260200160002060008373ffffffffffffffffffffffffffffffffffffffff1673ffffffffffffffffffffffffffffffffffffffff16815260200190815260200160002054905092915050565b60007f01ffc9a7000000000000000000000000000000000000000000000000000000007bffffffffffffffffffffffffffffffffffffffffffffffffffffffff1916827bffffffffffffffffffffffffffffffffffffffffffffffffffffffff1916149050919050565b600033905090565b600073ffffffffffffffffffffffffffffffffffffffff168373ffffffffffffffffffffffffffffffffffffffff16036109d4576040517f08c379a00000000000000000000000000000000000000000000000000000000081526004016109cb906119df565b60405180910390fd5b600073ffffffffffffffffffffffffffffffffffffffff168273ffffffffffffffffffffffffffffffffffffffff1603610a43576040517f08c379a0000000000000000000000000000000000000000000000000000000008152600401610a3a90611a71565b60405180910390fd5b80600160008573ffffffffffffffffffffffffffffffffffffffff1673ffffffffffffffffffffffffffffffffffffffff16815260200190815260200160002060008473ffffffffffffffffffffffffffffffffffffffff1673ffffffffffffffffffffffffffffffffffffffff168152602001908152602001600020819055508173ffffffffffffffffffffffffffffffffffffffff168373ffffffffffffffffffffffffffffffffffffffff167f8c5be1e5ebec7d5bd14f71427d1e84f3dd0314c0f7b2291e5b200ac8c7c3b92583604051610b2191906114df565b60405180910390a3505050565b6000610b3a848461086c565b90507fffffffffffffffffffffffffffffffffffffffffffffffffffffffffffffffff8114610bb45781811015610ba6576040517f08c379a0000000000000000000000000000000000000000000000000000000008152600401610b9d90611add565b60405180910390fd5b610bb38484848403610965565b5b50505050565b600073ffffffffffffffffffffffffffffffffffffffff168373ffffffffffffffffffffffffffffffffffffffff1603610c29576040517f08c379a0000000000000000000000000000000000000000000000000000000008152600401610c2090611b6f565b60405180910390fd5b600073ffffffffffffffffffffffffffffffffffffffff168273ffffffffffffffffffffffffffffffffffffffff1603610c98576040517f08c379a0000000000000000000000000000000000000000000000000000000008152600401610c8f90611c01565b60405180910390fd5b610ca3838383611205565b60008060008573ffffffffffffffffffffffffffffffffffffffff1673ffffffffffffffffffffffffffffffffffffffff16815260200190815260200160002054905081811015610d29576040517f08c379a0000000000000000000000000000000000000000000000000000000008152600401610d2090611c93565b60405180910390fd5b8181036000808673ffffffffffffffffffffffffffffffffffffffff1673ffffffffffffffffffffffffffffffffffffffff16815260200190815260200160002081905550816000808573ffffffffffffffffffffffffffffffffffffffff1673ffffffffffffffffffffffffffffffffffffffff168152602001908152602001600020600082825401925050819055508273ffffffffffffffffffffffffffffffffffffffff168473ffffffffffffffffffffffffffffffffffffffff167fddf252ad1be2c89b69c2b068fc378daa952ba7f163c4a11628f55a4df523b3ef84604051610e1791906114df565b60405180910390a3610e2a84848461120a565b50505050565b60008373ffffffffffffffffffffffffffffffffffffffff163b03610e8a576040517f08c379a0000000000000000000000000000000000000000000000000000000008152600401610e8190611d25565b60405180910390fd5b8273ffffffffffffffffffffffffffffffffffffffff166388a7ca5c610eae61095d565b8685856040518563ffffffff1660e01b8152600401610ed09493929190611da9565b6020604051808303816000875af1925050508015610f0c57506040513d601f19601f82011682018060405250810190610f099190611e0a565b60015b610f8e573d8060008114610f3c576040519150601f19603f3d011682016040523d82523d6000602084013e610f41565b606091505b506000815103610f86576040517f08c379a0000000000000000000000000000000000000000000000000000000008152600401610f7d90611ea9565b60405180910390fd5b805181602001fd5b6388a7ca5c60e01b7bffffffffffffffffffffffffffffffffffffffffffffffffffffffff1916817bffffffffffffffffffffffffffffffffffffffffffffffffffffffff191614611015576040517f08c379a000000000000000000000000000000000000000000000000000000000815260040161100c90611f3b565b60405180910390fd5b5050505050565b60008373ffffffffffffffffffffffffffffffffffffffff163b03611076576040517f08c379a000000000000000000000000000000000000000000000000000000000815260040161106d90611fcd565b60405180910390fd5b8273ffffffffffffffffffffffffffffffffffffffff16637b04a2d061109a61095d565b84846040518463ffffffff1660e01b81526004016110ba93929190611fed565b6020604051808303816000875af19250505080156110f657506040513d601f19601f820116820180604052508101906110f39190611e0a565b60015b611178573d8060008114611126576040519150601f19603f3d011682016040523d82523d6000602084013e61112b565b606091505b506000815103611170576040517f08c379a00000000000000000000000000000000000000000000000000000000081526004016111679061209d565b60405180910390fd5b805181602001fd5b637b04a2d060e01b7bffffffffffffffffffffffffffffffffffffffffffffffffffffffff1916817bffffffffffffffffffffffffffffffffffffffffffffffffffffffff1916146111ff576040517f08c379a00000000000000000000000000000000000000000000000000000000081526004016111f69061212f565b60405180910390fd5b50505050565b505050565b505050565b600082825260208201905092915050565b7f556e6b6e6f776e2066756e6374696f6e2063616c6c0000000000000000000000600082015250565b600061125660158361120f565b915061126182611220565b602082019050919050565b6000602082019050818103600083015261128581611249565b9050919050565b6000604051905090565b600080fd5b600080fd5b60007fffffffff0000000000000000000000000000000000000000000000000000000082169050919050565b6112d5816112a0565b81146112e057600080fd5b50565b6000813590506112f2816112cc565b92915050565b60006020828403121561130e5761130d611296565b5b600061131c848285016112e3565b91505092915050565b60008115159050919050565b61133a81611325565b82525050565b60006020820190506113556000830184611331565b92915050565b600081519050919050565b60005b83811015611384578082015181840152602081019050611369565b60008484015250505050565b6000601f19601f8301169050919050565b60006113ac8261135b565b6113b6818561120f565b93506113c6818560208601611366565b6113cf81611390565b840191505092915050565b600060208201905081810360008301526113f481846113a1565b905092915050565b600073ffffffffffffffffffffffffffffffffffffffff82169050919050565b6000611427826113fc565b9050919050565b6114378161141c565b811461144257600080fd5b50565b6000813590506114548161142e565b92915050565b6000819050919050565b61146d8161145a565b811461147857600080fd5b50565b60008135905061148a81611464565b92915050565b600080604083850312156114a7576114a6611296565b5b60006114b585828601611445565b92505060206114c68582860161147b565b9150509250929050565b6114d98161145a565b82525050565b60006020820190506114f460008301846114d0565b92915050565b60008060006060848603121561151357611512611296565b5b600061152186828701611445565b935050602061153286828701611445565b92505060406115438682870161147b565b9150509250925092565b600060ff82169050919050565b6115638161154d565b82525050565b600060208201905061157e600083018461155a565b92915050565b600080fd5b600080fd5b7f4e487b7100000000000000000000000000000000000000000000000000000000600052604160045260246000fd5b6115c682611390565b810181811067ffffffffffffffff821117156115e5576115e461158e565b5b80604052505050565b60006115f861128c565b905061160482826115bd565b919050565b600067ffffffffffffffff8211156116245761162361158e565b5b61162d82611390565b9050602081019050919050565b82818337600083830152505050565b600061165c61165784611609565b6115ee565b90508281526020810184848401111561167857611677611589565b5b61168384828561163a565b509392505050565b600082601f8301126116a05761169f611584565b5b81356116b0848260208601611649565b91505092915050565b6000806000606084860312156116d2576116d1611296565b5b60006116e086828701611445565b93505060206116f18682870161147b565b925050604084013567ffffffffffffffff8111156117125761171161129b565b5b61171e8682870161168b565b9150509250925092565b60006020828403121561173e5761173d611296565b5b600061174c84828501611445565b91505092915050565b6000806000806080858703121561176f5761176e611296565b5b600061177d87828801611445565b945050602061178e87828801611445565b935050604061179f8782880161147b565b925050606085013567ffffffffffffffff8111156117c0576117bf61129b565b5b6117cc8782880161168b565b91505092959194509250565b600080604083850312156117ef576117ee611296565b5b60006117fd85828601611445565b925050602061180e85828601611445565b9150509250929050565b7f4e487b7100000000000000000000000000000000000000000000000000000000600052602260045260246000fd5b6000600282049050600182168061185f57607f821691505b60208210810361187257611871611818565b5b50919050565b7f4e487b7100000000000000000000000000000000000000000000000000000000600052601160045260246000fd5b60006118b28261145a565b91506118bd8361145a565b92508282019050808211156118d5576118d4611878565b5b92915050565b7f45524332303a2064656372656173656420616c6c6f77616e63652062656c6f7760008201527f207a65726f000000000000000000000000000000000000000000000000000000602082015250565b600061193760258361120f565b9150611942826118db565b604082019050919050565b600060208201905081810360008301526119668161192a565b9050919050565b7f45524332303a20617070726f76652066726f6d20746865207a65726f2061646460008201527f7265737300000000000000000000000000000000000000000000000000000000602082015250565b60006119c960248361120f565b91506119d48261196d565b604082019050919050565b600060208201905081810360008301526119f8816119bc565b9050919050565b7f45524332303a20617070726f766520746f20746865207a65726f20616464726560008201527f7373000000000000000000000000000000000000000000000000000000000000602082015250565b6000611a5b60228361120f565b9150611a66826119ff565b604082019050919050565b60006020820190508181036000830152611a8a81611a4e565b9050919050565b7f45524332303a20696e73756666696369656e7420616c6c6f77616e6365000000600082015250565b6000611ac7601d8361120f565b9150611ad282611a91565b602082019050919050565b60006020820190508181036000830152611af681611aba565b9050919050565b7f45524332303a207472616e736665722066726f6d20746865207a65726f20616460008201527f6472657373000000000000000000000000000000000000000000000000000000602082015250565b6000611b5960258361120f565b9150611b6482611afd565b604082019050919050565b60006020820190508181036000830152611b8881611b4c565b9050919050565b7f45524332303a207472616e7366657220746f20746865207a65726f206164647260008201527f6573730000000000000000000000000000000000000000000000000000000000602082015250565b6000611beb60238361120f565b9150611bf682611b8f565b604082019050919050565b60006020820190508181036000830152611c1a81611bde565b9050919050565b7f45524332303a207472616e7366657220616d6f756e742065786365656473206260008201527f616c616e63650000000000000000000000000000000000000000000000000000602082015250565b6000611c7d60268361120f565b9150611c8882611c21565b604082019050919050565b60006020820190508181036000830152611cac81611c70565b9050919050565b7f455243313336333a207472616e7366657220746f206e6f6e20636f6e7472616360008201527f7420616464726573730000000000000000000000000000000000000000000000602082015250565b6000611d0f60298361120f565b9150611d1a82611cb3565b604082019050919050565b60006020820190508181036000830152611d3e81611d02565b9050919050565b611d4e8161141c565b82525050565b600081519050919050565b600082825260208201905092915050565b6000611d7b82611d54565b611d858185611d5f565b9350611d95818560208601611366565b611d9e81611390565b840191505092915050565b6000608082019050611dbe6000830187611d45565b611dcb6020830186611d45565b611dd860408301856114d0565b8181036060830152611dea8184611d70565b905095945050505050565b600081519050611e04816112cc565b92915050565b600060208284031215611e2057611e1f611296565b5b6000611e2e84828501611df5565b91505092915050565b7f455243313336333a207472616e7366657220746f206e6f6e204552433133363360008201527f526563656976657220696d706c656d656e746572000000000000000000000000602082015250565b6000611e9360348361120f565b9150611e9e82611e37565b604082019050919050565b60006020820190508181036000830152611ec281611e86565b9050919050565b7f455243313336333a2072656365697665722072657475726e65642077726f6e6760008201527f2064617461000000000000000000000000000000000000000000000000000000602082015250565b6000611f2560258361120f565b9150611f3082611ec9565b604082019050919050565b60006020820190508181036000830152611f5481611f18565b9050919050565b7f455243313336333a20617070726f76652061206e6f6e20636f6e74726163742060008201527f6164647265737300000000000000000000000000000000000000000000000000602082015250565b6000611fb760278361120f565b9150611fc282611f5b565b604082019050919050565b60006020820190508181036000830152611fe681611faa565b9050919050565b60006060820190506120026000830186611d45565b61200f60208301856114d0565b81810360408301526120218184611d70565b9050949350505050565b7f455243313336333a20617070726f76652061206e6f6e2045524331333633537060008201527f656e64657220696d706c656d656e746572000000000000000000000000000000602082015250565b600061208760318361120f565b91506120928261202b565b604082019050919050565b600060208201905081810360008301526120b68161207a565b9050919050565b7f455243313336333a207370656e6465722072657475726e65642077726f6e672060008201527f6461746100000000000000000000000000000000000000000000000000000000602082015250565b600061211960248361120f565b9150612124826120bd565b604082019050919050565b600060208201905081810360008301526121488161210c565b905091905056fea26469706673582212209067f2b1b20d50d2a0b05850dfa61866e039d48ca659fbaaa54b13bb8465a9a164736f6c63430008140033",
  "linkReferences": {},
  "deployedLinkReferences": {}
}