{
  "_format": "hh-sol-artifact-1",
  "contractName": "OneMilNftPixels",
  "sourceName": "contracts/example.sol",
  "abi": [
    {
      "inputs": [],
      "stateMutability": "nonpayable",
      "type": "constructor"
    },
    {
      "inputs": [
        {
          "internalType": "address",
          "name": "sender",
          "type": "address"
        },
        {
          "internalType": "uint256",
          "name": "tokenId",
          "type": "uint256"
        },
        {
          "internalType": "address",
          "name": "owner",
          "type": "address"
        }
      ],
      "name": "ERC721IncorrectOwner",
      "type": "error"
    },
    {
      "inputs": [
        {
          "internalType": "address",
          "name": "operator",
          "type": "address"
        },
        {
          "internalType": "uint256",
          "name": "tokenId",
          "type": "uint256"
        }
      ],
      "name": "ERC721InsufficientApproval",
      "type": "error"
    },
    {
      "inputs": [
        {
          "internalType": "address",
          "name": "approver",
          "type": "address"
        }
      ],
      "name": "ERC721InvalidApprover",
      "type": "error"
    },
    {
      "inputs": [
        {
          "internalType": "address",
          "name": "operator",
          "type": "address"
        }
      ],
      "name": "ERC721InvalidOperator",
      "type": "error"
    },
    {
      "inputs": [
        {
          "internalType": "address",
          "name": "owner",
          "type": "address"
        }
      ],
      "name": "ERC721InvalidOwner",
      "type": "error"
    },
    {
      "inputs": [
        {
          "internalType": "address",
          "name": "receiver",
          "type": "address"
        }
      ],
      "name": "ERC721InvalidReceiver",
      "type": "error"
    },
    {
      "inputs": [
        {
          "internalType": "address",
          "name": "sender",
          "type": "address"
        }
      ],
      "name": "ERC721InvalidSender",
      "type": "error"
    },
    {
      "inputs": [
        {
          "internalType": "uint256",
          "name": "tokenId",
          "type": "uint256"
        }
      ],
      "name": "ERC721NonexistentToken",
      "type": "error"
    },
    {
      "inputs": [
        {
          "internalType": "address",
          "name": "owner",
          "type": "address"
        }
      ],
      "name": "OwnableInvalidOwner",
      "type": "error"
    },
    {
      "inputs": [
        {
          "internalType": "address",
          "name": "account",
          "type": "address"
        }
      ],
      "name": "OwnableUnauthorizedAccount",
      "type": "error"
    },
    {
      "anonymous": false,
      "inputs": [
        {
          "indexed": true,
          "internalType": "address",
          "name": "owner",
          "type": "address"
        },
        {
          "indexed": true,
          "internalType": "address",
          "name": "approved",
          "type": "address"
        },
        {
          "indexed": true,
          "internalType": "uint256",
          "name": "tokenId",
          "type": "uint256"
        }
      ],
      "name": "Approval",
      "type": "event"
    },
    {
      "anonymous": false,
      "inputs": [
        {
          "indexed": true,
          "internalType": "address",
          "name": "owner",
          "type": "address"
        },
        {
          "indexed": true,
          "internalType": "address",
          "name": "operator",
          "type": "address"
        },
        {
          "indexed": false,
          "internalType": "bool",
          "name": "approved",
          "type": "bool"
        }
      ],
      "name": "ApprovalForAll",
      "type": "event"
    },
    {
      "anonymous": false,
      "inputs": [
        {
          "indexed": true,
          "internalType": "address",
          "name": "previousOwner",
          "type": "address"
        },
        {
          "indexed": true,
          "internalType": "address",
          "name": "newOwner",
          "type": "address"
        }
      ],
      "name": "OwnershipTransferred",
      "type": "event"
    },
    {
      "anonymous": false,
      "inputs": [
        {
          "indexed": true,
          "internalType": "uint24",
          "name": "tokenId",
          "type": "uint24"
        }
      ],
      "name": "Purchase",
      "type": "event"
    },
    {
      "anonymous": false,
      "inputs": [
        {
          "indexed": true,
          "internalType": "address",
          "name": "from",
          "type": "address"
        },
        {
          "indexed": true,
          "internalType": "address",
          "name": "to",
          "type": "address"
        },
        {
          "indexed": true,
          "internalType": "uint256",
          "name": "tokenId",
          "type": "uint256"
        }
      ],
      "name": "Transfer",
      "type": "event"
    },
    {
      "anonymous": false,
      "inputs": [
        {
          "indexed": true,
          "internalType": "uint24",
          "name": "tokenId",
          "type": "uint24"
        }
      ],
      "name": "Update",
      "type": "event"
    },
    {
      "inputs": [
        {
          "internalType": "address",
          "name": "to",
          "type": "address"
        },
        {
          "internalType": "uint256",
          "name": "tokenId",
          "type": "uint256"
        }
      ],
      "name": "approve",
      "outputs": [],
      "stateMutability": "nonpayable",
      "type": "function"
    },
    {
      "inputs": [
        {
          "internalType": "address",
          "name": "owner",
          "type": "address"
        }
      ],
      "name": "balanceOf",
      "outputs": [
        {
          "internalType": "uint256",
          "name": "",
          "type": "uint256"
        }
      ],
      "stateMutability": "view",
      "type": "function"
    },
    {
      "inputs": [
        {
          "internalType": "uint24",
          "name": "id",
          "type": "uint24"
        },
        {
          "internalType": "bytes3",
          "name": "colour",
          "type": "bytes3"
        }
      ],
      "name": "buy",
      "outputs": [],
      "stateMutability": "payable",
      "type": "function"
    },
    {
      "inputs": [
        {
          "internalType": "uint256",
          "name": "tokenId",
          "type": "uint256"
        }
      ],
      "name": "getApproved",
      "outputs": [
        {
          "internalType": "address",
          "name": "",
          "type": "address"
        }
      ],
      "stateMutability": "view",
      "type": "function"
    },
    {
      "inputs": [
        {
          "internalType": "address",
          "name": "owner",
          "type": "address"
        },
        {
          "internalType": "address",
          "name": "operator",
          "type": "address"
        }
      ],
      "name": "isApprovedForAll",
      "outputs": [
        {
          "internalType": "bool",
          "name": "",
          "type": "bool"
        }
      ],
      "stateMutability": "view",
      "type": "function"
    },
    {
      "inputs": [],
      "name": "minPriceIncrement",
      "outputs": [
        {
          "internalType": "uint256",
          "name": "",
          "type": "uint256"
        }
      ],
      "stateMutability": "view",
      "type": "function"
    },
    {
      "inputs": [],
      "name": "name",
      "outputs": [
        {
          "internalType": "string",
          "name": "",
          "type": "string"
        }
      ],
      "stateMutability": "view",
      "type": "function"
    },
    {
      "inputs": [],
      "name": "owner",
      "outputs": [
        {
          "internalType": "address",
          "name": "",
          "type": "address"
        }
      ],
      "stateMutability": "view",
      "type": "function"
    },
    {
      "inputs": [
        {
          "internalType": "uint256",
          "name": "tokenId",
          "type": "uint256"
        }
      ],
      "name": "ownerOf",
      "outputs": [
        {
          "internalType": "address",
          "name": "",
          "type": "address"
        }
      ],
      "stateMutability": "view",
      "type": "function"
    },
    {
      "inputs": [
        {
          "internalType": "uint24",
          "name": "",
          "type": "uint24"
        }
      ],
      "name": "pixels",
      "outputs": [
        {
          "internalType": "bytes3",
          "name": "colour",
          "type": "bytes3"
        },
        {
          "internalType": "uint256",
          "name": "price",
          "type": "uint256"
        }
      ],
      "stateMutability": "view",
      "type": "function"
    },
    {
      "inputs": [],
      "name": "renounceOwnership",
      "outputs": [],
      "stateMutability": "nonpayable",
      "type": "function"
    },
    {
      "inputs": [
        {
          "internalType": "address",
          "name": "from",
          "type": "address"
        },
        {
          "internalType": "address",
          "name": "to",
          "type": "address"
        },
        {
          "internalType": "uint256",
          "name": "tokenId",
          "type": "uint256"
        }
      ],
      "name": "safeTransferFrom",
      "outputs": [],
      "stateMutability": "nonpayable",
      "type": "function"
    },
    {
      "inputs": [
        {
          "internalType": "address",
          "name": "from",
          "type": "address"
        },
        {
          "internalType": "address",
          "name": "to",
          "type": "address"
        },
        {
          "internalType": "uint256",
          "name": "tokenId",
          "type": "uint256"
        },
        {
          "internalType": "bytes",
          "name": "data",
          "type": "bytes"
        }
      ],
      "name": "safeTransferFrom",
      "outputs": [],
      "stateMutability": "nonpayable",
      "type": "function"
    },
    {
      "inputs": [
        {
          "internalType": "address",
          "name": "operator",
          "type": "address"
        },
        {
          "internalType": "bool",
          "name": "approved",
          "type": "bool"
        }
      ],
      "name": "setApprovalForAll",
      "outputs": [],
      "stateMutability": "nonpayable",
      "type": "function"
    },
    {
      "inputs": [
        {
          "internalType": "uint256",
          "name": "newIncrement",
          "type": "uint256"
        }
      ],
      "name": "setMinPriceIncrement",
      "outputs": [],
      "stateMutability": "nonpayable",
      "type": "function"
    },
    {
      "inputs": [
        {
          "internalType": "uint256",
          "name": "newPrice",
          "type": "uint256"
        }
      ],
      "name": "setUpdatePrice",
      "outputs": [],
      "stateMutability": "nonpayable",
      "type": "function"
    },
    {
      "inputs": [
        {
          "internalType": "bytes4",
          "name": "interfaceId",
          "type": "bytes4"
        }
      ],
      "name": "supportsInterface",
      "outputs": [
        {
          "internalType": "bool",
          "name": "",
          "type": "bool"
        }
      ],
      "stateMutability": "view",
      "type": "function"
    },
    {
      "inputs": [],
      "name": "symbol",
      "outputs": [
        {
          "internalType": "string",
          "name": "",
          "type": "string"
        }
      ],
      "stateMutability": "view",
      "type": "function"
    },
    {
      "inputs": [
        {
          "internalType": "uint256",
          "name": "tokenId",
          "type": "uint256"
        }
      ],
      "name": "tokenURI",
      "outputs": [
        {
          "internalType": "string",
          "name": "",
          "type": "string"
        }
      ],
      "stateMutability": "view",
      "type": "function"
    },
    {
      "inputs": [
        {
          "internalType": "address",
          "name": "from",
          "type": "address"
        },
        {
          "internalType": "address",
          "name": "to",
          "type": "address"
        },
        {
          "internalType": "uint256",
          "name": "tokenId",
          "type": "uint256"
        }
      ],
      "name": "transferFrom",
      "outputs": [],
      "stateMutability": "nonpayable",
      "type": "function"
    },
    {
      "inputs": [
        {
          "internalType": "address",
          "name": "newOwner",
          "type": "address"
        }
      ],
      "name": "transferOwnership",
      "outputs": [],
      "stateMutability": "nonpayable",
      "type": "function"
    },
    {
      "inputs": [
        {
          "internalType": "uint24",
          "name": "id",
          "type": "uint24"
        },
        {
          "internalType": "bytes3",
          "name": "colour",
          "type": "bytes3"
        }
      ],
      "name": "update",
      "outputs": [],
      "stateMutability": "payable",
      "type": "function"
    },
    {
      "inputs": [],
      "name": "updatePrice",
      "outputs": [
        {
          "internalType": "uint256",
          "name": "",
          "type": "uint256"
        }
      ],
      "stateMutability": "view",
      "type": "function"
    }
  ],
  "bytecode": "0x60806040523480156200001157600080fd5b50336040518060400160405280600f81526020017f4f6e654d696c4e6674506978656c7300000000000000000000000000000000008152506040518060400160405280600781526020017f4e4654314d505800000000000000000000000000000000000000000000000000815250816000908162000090919062000472565b508060019081620000a2919062000472565b505050600073ffffffffffffffffffffffffffffffffffffffff168173ffffffffffffffffffffffffffffffffffffffff16036200011a5760006040517f1e4fbdf70000000000000000000000000000000000000000000000000000000081526004016200011191906200059e565b60405180910390fd5b6200012b816200013260201b60201c565b50620005bb565b6000600660009054906101000a900473ffffffffffffffffffffffffffffffffffffffff16905081600660006101000a81548173ffffffffffffffffffffffffffffffffffffffff021916908373ffffffffffffffffffffffffffffffffffffffff1602179055508173ffffffffffffffffffffffffffffffffffffffff168173ffffffffffffffffffffffffffffffffffffffff167f8be0079c531659141344cd1fd0a4f28419497f9722a3daafe3b4186f6b6457e060405160405180910390a35050565b600081519050919050565b7f4e487b7100000000000000000000000000000000000000000000000000000000600052604160045260246000fd5b7f4e487b7100000000000000000000000000000000000000000000000000000000600052602260045260246000fd5b600060028204905060018216806200027a57607f821691505b60208210810362000290576200028f62000232565b5b50919050565b60008190508160005260206000209050919050565b60006020601f8301049050919050565b600082821b905092915050565b600060088302620002fa7fffffffffffffffffffffffffffffffffffffffffffffffffffffffffffffffff82620002bb565b620003068683620002bb565b95508019841693508086168417925050509392505050565b6000819050919050565b6000819050919050565b6000620003536200034d62000347846200031e565b62000328565b6200031e565b9050919050565b6000819050919050565b6200036f8362000332565b620003876200037e826200035a565b848454620002c8565b825550505050565b600090565b6200039e6200038f565b620003ab81848462000364565b505050565b5b81811015620003d357620003c760008262000394565b600181019050620003b1565b5050565b601f8211156200042257620003ec8162000296565b620003f784620002ab565b8101602085101562000407578190505b6200041f6200041685620002ab565b830182620003b0565b50505b505050565b600082821c905092915050565b6000620004476000198460080262000427565b1980831691505092915050565b600062000462838362000434565b9150826002028217905092915050565b6200047d82620001f8565b67ffffffffffffffff81111562000499576200049862000203565b5b620004a5825462000261565b620004b2828285620003d7565b600060209050601f831160018114620004ea5760008415620004d5578287015190505b620004e1858262000454565b86555062000551565b601f198416620004fa8662000296565b60005b828110156200052457848901518255600182019150602085019450602081019050620004fd565b8683101562000544578489015162000540601f89168262000434565b8355505b6001600288020188555050505b505050505050565b600073ffffffffffffffffffffffffffffffffffffffff82169050919050565b6000620005868262000559565b9050919050565b620005988162000579565b82525050565b6000602082019050620005b560008301846200058d565b92915050565b61298e80620005cb6000396000f3fe6080604052600436106101405760003560e01c806370a08231116100b6578063a2d10dcc1161006f578063a2d10dcc1461044e578063ab6800bc14610477578063b88d4fde14610493578063c87b56dd146104bc578063e985e9c5146104f9578063f2fde38b1461053657610140565b806370a0823114610350578063715018a61461038d5780638da5cb5b146103a4578063900b9a89146103cf57806395d89b41146103fa578063a22cb4651461042557610140565b80632e052de0116101085780632e052de01461023c57806342842e0e1461027a57806354244369146102a357806358a44271146102cc5780636352211e146102e8578063673a7e281461032557610140565b806301ffc9a71461014557806306fdde0314610182578063081812fc146101ad578063095ea7b3146101ea57806323b872dd14610213575b600080fd5b34801561015157600080fd5b5061016c60048036038101906101679190611e61565b61055f565b6040516101799190611ea9565b60405180910390f35b34801561018e57600080fd5b50610197610641565b6040516101a49190611f54565b60405180910390f35b3480156101b957600080fd5b506101d460048036038101906101cf9190611fac565b6106d3565b6040516101e1919061201a565b60405180910390f35b3480156101f657600080fd5b50610211600480360381019061020c9190612061565b6106ef565b005b34801561021f57600080fd5b5061023a600480360381019061023591906120a1565b610705565b005b34801561024857600080fd5b50610263600480360381019061025e919061212f565b610807565b6040516102719291906121a6565b60405180910390f35b34801561028657600080fd5b506102a1600480360381019061029c91906120a1565b610838565b005b3480156102af57600080fd5b506102ca60048036038101906102c59190611fac565b610858565b005b6102e660048036038101906102e191906121fb565b61086a565b005b3480156102f457600080fd5b5061030f600480360381019061030a9190611fac565b610af3565b60405161031c919061201a565b60405180910390f35b34801561033157600080fd5b5061033a610b05565b604051610347919061223b565b60405180910390f35b34801561035c57600080fd5b5061037760048036038101906103729190612256565b610b0b565b604051610384919061223b565b60405180910390f35b34801561039957600080fd5b506103a2610bc5565b005b3480156103b057600080fd5b506103b9610bd9565b6040516103c6919061201a565b60405180910390f35b3480156103db57600080fd5b506103e4610c03565b6040516103f1919061223b565b60405180910390f35b34801561040657600080fd5b5061040f610c09565b60405161041c9190611f54565b60405180910390f35b34801561043157600080fd5b5061044c600480360381019061044791906122af565b610c9b565b005b34801561045a57600080fd5b5061047560048036038101906104709190611fac565b610cb1565b005b610491600480360381019061048c91906121fb565b610cc3565b005b34801561049f57600080fd5b506104ba60048036038101906104b59190612424565b610dc7565b005b3480156104c857600080fd5b506104e360048036038101906104de9190611fac565b610de4565b6040516104f09190611f54565b60405180910390f35b34801561050557600080fd5b50610520600480360381019061051b91906124a7565b610e4d565b60405161052d9190611ea9565b60405180910390f35b34801561054257600080fd5b5061055d60048036038101906105589190612256565b610ee1565b005b60007f80ac58cd000000000000000000000000000000000000000000000000000000007bffffffffffffffffffffffffffffffffffffffffffffffffffffffff1916827bffffffffffffffffffffffffffffffffffffffffffffffffffffffff1916148061062a57507f5b5e139f000000000000000000000000000000000000000000000000000000007bffffffffffffffffffffffffffffffffffffffffffffffffffffffff1916827bffffffffffffffffffffffffffffffffffffffffffffffffffffffff1916145b8061063a575061063982610f67565b5b9050919050565b60606000805461065090612516565b80601f016020809104026020016040519081016040528092919081815260200182805461067c90612516565b80156106c95780601f1061069e576101008083540402835291602001916106c9565b820191906000526020600020905b8154815290600101906020018083116106ac57829003601f168201915b5050505050905090565b60006106de82610fd1565b506106e882611059565b9050919050565b61070182826106fc611096565b61109e565b5050565b600073ffffffffffffffffffffffffffffffffffffffff168273ffffffffffffffffffffffffffffffffffffffff16036107775760006040517f64a0ae9200000000000000000000000000000000000000000000000000000000815260040161076e919061201a565b60405180910390fd5b600061078b8383610786611096565b6110b0565b90508373ffffffffffffffffffffffffffffffffffffffff168173ffffffffffffffffffffffffffffffffffffffff1614610801578382826040517f64283d7b0000000000000000000000000000000000000000000000000000000081526004016107f893929190612547565b60405180910390fd5b50505050565b60076020528060005260406000206000915090508060000160009054906101000a900460e81b908060010154905082565b61085383838360405180602001604052806000815250610dc7565b505050565b6108606112ca565b8060098190555050565b6000600760008462ffffff1662ffffff1681526020019081526020016000206040518060400160405290816000820160009054906101000a900460e81b7cffffffffffffffffffffffffffffffffffffffffffffffffffffffffff19167cffffffffffffffffffffffffffffffffffffffffffffffffffffffffff1916815260200160018201548152505090503073ffffffffffffffffffffffffffffffffffffffff16636352211e846040518263ffffffff1660e01b815260040161093091906125b9565b602060405180830381865afa92505050801561096a57506040513d601f19601f8201168201806040525081019061096791906125e9565b60015b156109ab57506040517f08c379a00000000000000000000000000000000000000000000000000000000081526004016109a290612662565b60405180910390fd5b60085481602001516109bd91906126b1565b3410156109ff576040517f08c379a00000000000000000000000000000000000000000000000000000000081526004016109f690612731565b60405180910390fd5b81600760008562ffffff1662ffffff16815260200190815260200160002060000160006101000a81548162ffffff021916908360e81c021790555034600760008562ffffff1662ffffff16815260200190815260200160002060010181905550610a6e338462ffffff16611351565b610a76610bd9565b73ffffffffffffffffffffffffffffffffffffffff166108fc349081150290604051600060405180830381858888f19350505050158015610abb573d6000803e3d6000fd5b508262ffffff167f57e33cb60d5e191fe838707014de94f77f382aff8c1164bfc719d9e99c99a7d360405160405180910390a2505050565b6000610afe82610fd1565b9050919050565b60095481565b60008073ffffffffffffffffffffffffffffffffffffffff168273ffffffffffffffffffffffffffffffffffffffff1603610b7e5760006040517f89c62b64000000000000000000000000000000000000000000000000000000008152600401610b75919061201a565b60405180910390fd5b600360008373ffffffffffffffffffffffffffffffffffffffff1673ffffffffffffffffffffffffffffffffffffffff168152602001908152602001600020549050919050565b610bcd6112ca565b610bd7600061144a565b565b6000600660009054906101000a900473ffffffffffffffffffffffffffffffffffffffff16905090565b60085481565b606060018054610c1890612516565b80601f0160208091040260200160405190810160405280929190818152602001828054610c4490612516565b8015610c915780601f10610c6657610100808354040283529160200191610c91565b820191906000526020600020905b815481529060010190602001808311610c7457829003601f168201915b5050505050905090565b610cad610ca6611096565b8383611510565b5050565b610cb96112ca565b8060088190555050565b600954341015610d08576040517f08c379a0000000000000000000000000000000000000000000000000000000008152600401610cff9061279d565b60405180910390fd5b80600760008462ffffff1662ffffff16815260200190815260200160002060000160006101000a81548162ffffff021916908360e81c0217905550610d4b610bd9565b73ffffffffffffffffffffffffffffffffffffffff166108fc349081150290604051600060405180830381858888f19350505050158015610d90573d6000803e3d6000fd5b508162ffffff167f1f882fc4d7efabb4ce918eb61eee899f9b59c00e6327f7349df94881649ac79c60405160405180910390a25050565b610dd2848484610705565b610dde8484848461167f565b50505050565b6060610def82610fd1565b506000610dfa611836565b90506000815111610e1a5760405180602001604052806000815250610e45565b80610e248461184d565b604051602001610e359291906127f9565b6040516020818303038152906040525b915050919050565b6000600560008473ffffffffffffffffffffffffffffffffffffffff1673ffffffffffffffffffffffffffffffffffffffff16815260200190815260200160002060008373ffffffffffffffffffffffffffffffffffffffff1673ffffffffffffffffffffffffffffffffffffffff16815260200190815260200160002060009054906101000a900460ff16905092915050565b610ee96112ca565b600073ffffffffffffffffffffffffffffffffffffffff168173ffffffffffffffffffffffffffffffffffffffff1603610f5b5760006040517f1e4fbdf7000000000000000000000000000000000000000000000000000000008152600401610f52919061201a565b60405180910390fd5b610f648161144a565b50565b60007f01ffc9a7000000000000000000000000000000000000000000000000000000007bffffffffffffffffffffffffffffffffffffffffffffffffffffffff1916827bffffffffffffffffffffffffffffffffffffffffffffffffffffffff1916149050919050565b600080610fdd8361191b565b9050600073ffffffffffffffffffffffffffffffffffffffff168173ffffffffffffffffffffffffffffffffffffffff160361105057826040517f7e273289000000000000000000000000000000000000000000000000000000008152600401611047919061223b565b60405180910390fd5b80915050919050565b60006004600083815260200190815260200160002060009054906101000a900473ffffffffffffffffffffffffffffffffffffffff169050919050565b600033905090565b6110ab8383836001611958565b505050565b6000806110bc8461191b565b9050600073ffffffffffffffffffffffffffffffffffffffff168373ffffffffffffffffffffffffffffffffffffffff16146110fe576110fd818486611b1d565b5b600073ffffffffffffffffffffffffffffffffffffffff168173ffffffffffffffffffffffffffffffffffffffff161461118f57611140600085600080611958565b6001600360008373ffffffffffffffffffffffffffffffffffffffff1673ffffffffffffffffffffffffffffffffffffffff168152602001908152602001600020600082825403925050819055505b600073ffffffffffffffffffffffffffffffffffffffff168573ffffffffffffffffffffffffffffffffffffffff1614611212576001600360008773ffffffffffffffffffffffffffffffffffffffff1673ffffffffffffffffffffffffffffffffffffffff168152602001908152602001600020600082825401925050819055505b846002600086815260200190815260200160002060006101000a81548173ffffffffffffffffffffffffffffffffffffffff021916908373ffffffffffffffffffffffffffffffffffffffff160217905550838573ffffffffffffffffffffffffffffffffffffffff168273ffffffffffffffffffffffffffffffffffffffff167fddf252ad1be2c89b69c2b068fc378daa952ba7f163c4a11628f55a4df523b3ef60405160405180910390a4809150509392505050565b6112d2611096565b73ffffffffffffffffffffffffffffffffffffffff166112f0610bd9565b73ffffffffffffffffffffffffffffffffffffffff161461134f57611313611096565b6040517f118cdaa7000000000000000000000000000000000000000000000000000000008152600401611346919061201a565b60405180910390fd5b565b600073ffffffffffffffffffffffffffffffffffffffff168273ffffffffffffffffffffffffffffffffffffffff16036113c35760006040517f64a0ae920000000000000000000000000000000000000000000000000000000081526004016113ba919061201a565b60405180910390fd5b60006113d1838360006110b0565b9050600073ffffffffffffffffffffffffffffffffffffffff168173ffffffffffffffffffffffffffffffffffffffff16146114455760006040517f73c6ac6e00000000000000000000000000000000000000000000000000000000815260040161143c919061201a565b60405180910390fd5b505050565b6000600660009054906101000a900473ffffffffffffffffffffffffffffffffffffffff16905081600660006101000a81548173ffffffffffffffffffffffffffffffffffffffff021916908373ffffffffffffffffffffffffffffffffffffffff1602179055508173ffffffffffffffffffffffffffffffffffffffff168173ffffffffffffffffffffffffffffffffffffffff167f8be0079c531659141344cd1fd0a4f28419497f9722a3daafe3b4186f6b6457e060405160405180910390a35050565b600073ffffffffffffffffffffffffffffffffffffffff168273ffffffffffffffffffffffffffffffffffffffff160361158157816040517f5b08ba18000000000000000000000000000000000000000000000000000000008152600401611578919061201a565b60405180910390fd5b80600560008573ffffffffffffffffffffffffffffffffffffffff1673ffffffffffffffffffffffffffffffffffffffff16815260200190815260200160002060008473ffffffffffffffffffffffffffffffffffffffff1673ffffffffffffffffffffffffffffffffffffffff16815260200190815260200160002060006101000a81548160ff0219169083151502179055508173ffffffffffffffffffffffffffffffffffffffff168373ffffffffffffffffffffffffffffffffffffffff167f17307eab39ab6107e8899845ad3d59bd9653f200f220920489ca2b5937696c31836040516116729190611ea9565b60405180910390a3505050565b60008373ffffffffffffffffffffffffffffffffffffffff163b1115611830578273ffffffffffffffffffffffffffffffffffffffff1663150b7a026116c3611096565b8685856040518563ffffffff1660e01b81526004016116e59493929190612872565b6020604051808303816000875af192505050801561172157506040513d601f19601f8201168201806040525081019061171e91906128d3565b60015b6117a5573d8060008114611751576040519150601f19603f3d011682016040523d82523d6000602084013e611756565b606091505b50600081510361179d57836040517f64a0ae92000000000000000000000000000000000000000000000000000000008152600401611794919061201a565b60405180910390fd5b805181602001fd5b63150b7a0260e01b7bffffffffffffffffffffffffffffffffffffffffffffffffffffffff1916817bffffffffffffffffffffffffffffffffffffffffffffffffffffffff19161461182e57836040517f64a0ae92000000000000000000000000000000000000000000000000000000008152600401611825919061201a565b60405180910390fd5b505b50505050565b606060405180602001604052806000815250905090565b60606000600161185c84611be1565b01905060008167ffffffffffffffff81111561187b5761187a6122f9565b5b6040519080825280601f01601f1916602001820160405280156118ad5781602001600182028036833780820191505090505b509050600082602001820190505b600115611910578080600190039150507f3031323334353637383961626364656600000000000000000000000000000000600a86061a8153600a858161190457611903612900565b5b049450600085036118bb575b819350505050919050565b60006002600083815260200190815260200160002060009054906101000a900473ffffffffffffffffffffffffffffffffffffffff169050919050565b80806119915750600073ffffffffffffffffffffffffffffffffffffffff168273ffffffffffffffffffffffffffffffffffffffff1614155b15611ac55760006119a184610fd1565b9050600073ffffffffffffffffffffffffffffffffffffffff168373ffffffffffffffffffffffffffffffffffffffff1614158015611a0c57508273ffffffffffffffffffffffffffffffffffffffff168173ffffffffffffffffffffffffffffffffffffffff1614155b8015611a1f5750611a1d8184610e4d565b155b15611a6157826040517fa9fbf51f000000000000000000000000000000000000000000000000000000008152600401611a58919061201a565b60405180910390fd5b8115611ac357838573ffffffffffffffffffffffffffffffffffffffff168273ffffffffffffffffffffffffffffffffffffffff167f8c5be1e5ebec7d5bd14f71427d1e84f3dd0314c0f7b2291e5b200ac8c7c3b92560405160405180910390a45b505b836004600085815260200190815260200160002060006101000a81548173ffffffffffffffffffffffffffffffffffffffff021916908373ffffffffffffffffffffffffffffffffffffffff16021790555050505050565b611b28838383611d34565b611bdc57600073ffffffffffffffffffffffffffffffffffffffff168373ffffffffffffffffffffffffffffffffffffffff1603611b9d57806040517f7e273289000000000000000000000000000000000000000000000000000000008152600401611b94919061223b565b60405180910390fd5b81816040517f177e802f000000000000000000000000000000000000000000000000000000008152600401611bd392919061292f565b60405180910390fd5b505050565b600080600090507a184f03e93ff9f4daa797ed6e38ed64bf6a1f0100000000000000008310611c3f577a184f03e93ff9f4daa797ed6e38ed64bf6a1f0100000000000000008381611c3557611c34612900565b5b0492506040810190505b6d04ee2d6d415b85acef81000000008310611c7c576d04ee2d6d415b85acef81000000008381611c7257611c71612900565b5b0492506020810190505b662386f26fc100008310611cab57662386f26fc100008381611ca157611ca0612900565b5b0492506010810190505b6305f5e1008310611cd4576305f5e1008381611cca57611cc9612900565b5b0492506008810190505b6127108310611cf9576127108381611cef57611cee612900565b5b0492506004810190505b60648310611d1c5760648381611d1257611d11612900565b5b0492506002810190505b600a8310611d2b576001810190505b80915050919050565b60008073ffffffffffffffffffffffffffffffffffffffff168373ffffffffffffffffffffffffffffffffffffffff1614158015611dec57508273ffffffffffffffffffffffffffffffffffffffff168473ffffffffffffffffffffffffffffffffffffffff161480611dad5750611dac8484610e4d565b5b80611deb57508273ffffffffffffffffffffffffffffffffffffffff16611dd383611059565b73ffffffffffffffffffffffffffffffffffffffff16145b5b90509392505050565b6000604051905090565b600080fd5b600080fd5b60007fffffffff0000000000000000000000000000000000000000000000000000000082169050919050565b611e3e81611e09565b8114611e4957600080fd5b50565b600081359050611e5b81611e35565b92915050565b600060208284031215611e7757611e76611dff565b5b6000611e8584828501611e4c565b91505092915050565b60008115159050919050565b611ea381611e8e565b82525050565b6000602082019050611ebe6000830184611e9a565b92915050565b600081519050919050565b600082825260208201905092915050565b60005b83811015611efe578082015181840152602081019050611ee3565b60008484015250505050565b6000601f19601f8301169050919050565b6000611f2682611ec4565b611f308185611ecf565b9350611f40818560208601611ee0565b611f4981611f0a565b840191505092915050565b60006020820190508181036000830152611f6e8184611f1b565b905092915050565b6000819050919050565b611f8981611f76565b8114611f9457600080fd5b50565b600081359050611fa681611f80565b92915050565b600060208284031215611fc257611fc1611dff565b5b6000611fd084828501611f97565b91505092915050565b600073ffffffffffffffffffffffffffffffffffffffff82169050919050565b600061200482611fd9565b9050919050565b61201481611ff9565b82525050565b600060208201905061202f600083018461200b565b92915050565b61203e81611ff9565b811461204957600080fd5b50565b60008135905061205b81612035565b92915050565b6000806040838503121561207857612077611dff565b5b60006120868582860161204c565b925050602061209785828601611f97565b9150509250929050565b6000806000606084860312156120ba576120b9611dff565b5b60006120c88682870161204c565b93505060206120d98682870161204c565b92505060406120ea86828701611f97565b9150509250925092565b600062ffffff82169050919050565b61210c816120f4565b811461211757600080fd5b50565b60008135905061212981612103565b92915050565b60006020828403121561214557612144611dff565b5b60006121538482850161211a565b91505092915050565b60007fffffff000000000000000000000000000000000000000000000000000000000082169050919050565b6121918161215c565b82525050565b6121a081611f76565b82525050565b60006040820190506121bb6000830185612188565b6121c86020830184612197565b9392505050565b6121d88161215c565b81146121e357600080fd5b50565b6000813590506121f5816121cf565b92915050565b6000806040838503121561221257612211611dff565b5b60006122208582860161211a565b9250506020612231858286016121e6565b9150509250929050565b60006020820190506122506000830184612197565b92915050565b60006020828403121561226c5761226b611dff565b5b600061227a8482850161204c565b91505092915050565b61228c81611e8e565b811461229757600080fd5b50565b6000813590506122a981612283565b92915050565b600080604083850312156122c6576122c5611dff565b5b60006122d48582860161204c565b92505060206122e58582860161229a565b9150509250929050565b600080fd5b600080fd5b7f4e487b7100000000000000000000000000000000000000000000000000000000600052604160045260246000fd5b61233182611f0a565b810181811067ffffffffffffffff821117156123505761234f6122f9565b5b80604052505050565b6000612363611df5565b905061236f8282612328565b919050565b600067ffffffffffffffff82111561238f5761238e6122f9565b5b61239882611f0a565b9050602081019050919050565b82818337600083830152505050565b60006123c76123c284612374565b612359565b9050828152602081018484840111156123e3576123e26122f4565b5b6123ee8482856123a5565b509392505050565b600082601f83011261240b5761240a6122ef565b5b813561241b8482602086016123b4565b91505092915050565b6000806000806080858703121561243e5761243d611dff565b5b600061244c8782880161204c565b945050602061245d8782880161204c565b935050604061246e87828801611f97565b925050606085013567ffffffffffffffff81111561248f5761248e611e04565b5b61249b878288016123f6565b91505092959194509250565b600080604083850312156124be576124bd611dff565b5b60006124cc8582860161204c565b92505060206124dd8582860161204c565b9150509250929050565b7f4e487b7100000000000000000000000000000000000000000000000000000000600052602260045260246000fd5b6000600282049050600182168061252e57607f821691505b602082108103612541576125406124e7565b5b50919050565b600060608201905061255c600083018661200b565b6125696020830185612197565b612576604083018461200b565b949350505050565b6000819050919050565b60006125a361259e612599846120f4565b61257e565b611f76565b9050919050565b6125b381612588565b82525050565b60006020820190506125ce60008301846125aa565b92915050565b6000815190506125e381612035565b92915050565b6000602082840312156125ff576125fe611dff565b5b600061260d848285016125d4565b91505092915050565b7f506978656c20616c7265616479206f776e656400000000000000000000000000600082015250565b600061264c601383611ecf565b915061265782612616565b602082019050919050565b6000602082019050818103600083015261267b8161263f565b9050919050565b7f4e487b7100000000000000000000000000000000000000000000000000000000600052601160045260246000fd5b60006126bc82611f76565b91506126c783611f76565b92508282019050808211156126df576126de612682565b5b92915050565b7f496e73756666696369656e74207061796d656e74000000000000000000000000600082015250565b600061271b601483611ecf565b9150612726826126e5565b602082019050919050565b6000602082019050818103600083015261274a8161270e565b9050919050565b7f496e73756666696369656e74207061796d656e7420666f722075706461746500600082015250565b6000612787601f83611ecf565b915061279282612751565b602082019050919050565b600060208201905081810360008301526127b68161277a565b9050919050565b600081905092915050565b60006127d382611ec4565b6127dd81856127bd565b93506127ed818560208601611ee0565b80840191505092915050565b600061280582856127c8565b915061281182846127c8565b91508190509392505050565b600081519050919050565b600082825260208201905092915050565b60006128448261281d565b61284e8185612828565b935061285e818560208601611ee0565b61286781611f0a565b840191505092915050565b6000608082019050612887600083018761200b565b612894602083018661200b565b6128a16040830185612197565b81810360608301526128b38184612839565b905095945050505050565b6000815190506128cd81611e35565b92915050565b6000602082840312156128e9576128e8611dff565b5b60006128f7848285016128be565b91505092915050565b7f4e487b7100000000000000000000000000000000000000000000000000000000600052601260045260246000fd5b6000604082019050612944600083018561200b565b6129516020830184612197565b939250505056fea26469706673582212201022897616f56d95c87a094a016e35dfe2c4d83bdd71b75e719fd03e98064f1764736f6c63430008140033",
  "linkReferences": {},
  "deployedLinkReferences": {}
}