{
  "_format": "hh-sol-artifact-1",
  "contractName": "OneMilNftPixels",
  "sourceName": "contracts/OneMilNftPixels.sol",
  "abi": [
    {
      "inputs": [
        {
          "internalType": "contract IERC1363",
          "name": "_acceptedToken",
          "type": "address"
        }
      ],
      "stateMutability": "nonpayable",
      "type": "constructor"
    },
    {
      "anonymous": false,
      "inputs": [
        {
          "indexed": true,
          "internalType": "address",
          "name": "owner",
          "type": "address"
        },
        {
          "indexed": true,
          "internalType": "address",
          "name": "approved",
          "type": "address"
        },
        {
          "indexed": true,
          "internalType": "uint256",
          "name": "tokenId",
          "type": "uint256"
        }
      ],
      "name": "Approval",
      "type": "event"
    },
    {
      "anonymous": false,
      "inputs": [
        {
          "indexed": true,
          "internalType": "address",
          "name": "owner",
          "type": "address"
        },
        {
          "indexed": true,
          "internalType": "address",
          "name": "operator",
          "type": "address"
        },
        {
          "indexed": false,
          "internalType": "bool",
          "name": "approved",
          "type": "bool"
        }
      ],
      "name": "ApprovalForAll",
      "type": "event"
    },
    {
      "anonymous": false,
      "inputs": [],
      "name": "OwnerAdmin",
      "type": "event"
    },
    {
      "anonymous": false,
      "inputs": [
        {
          "indexed": true,
          "internalType": "address",
          "name": "previousOwner",
          "type": "address"
        },
        {
          "indexed": true,
          "internalType": "address",
          "name": "newOwner",
          "type": "address"
        }
      ],
      "name": "OwnershipTransferred",
      "type": "event"
    },
    {
      "anonymous": false,
      "inputs": [
        {
          "indexed": true,
          "internalType": "address",
          "name": "sender",
          "type": "address"
        },
        {
          "indexed": false,
          "internalType": "uint256",
          "name": "amount",
          "type": "uint256"
        },
        {
          "indexed": false,
          "internalType": "bytes",
          "name": "data",
          "type": "bytes"
        }
      ],
      "name": "TokensApproved",
      "type": "event"
    },
    {
      "anonymous": false,
      "inputs": [
        {
          "indexed": true,
          "internalType": "address",
          "name": "operator",
          "type": "address"
        },
        {
          "indexed": true,
          "internalType": "address",
          "name": "sender",
          "type": "address"
        },
        {
          "indexed": false,
          "internalType": "uint256",
          "name": "amount",
          "type": "uint256"
        },
        {
          "indexed": false,
          "internalType": "bytes",
          "name": "data",
          "type": "bytes"
        }
      ],
      "name": "TokensReceived",
      "type": "event"
    },
    {
      "anonymous": false,
      "inputs": [
        {
          "indexed": true,
          "internalType": "address",
          "name": "from",
          "type": "address"
        },
        {
          "indexed": true,
          "internalType": "address",
          "name": "to",
          "type": "address"
        },
        {
          "indexed": true,
          "internalType": "uint256",
          "name": "tokenId",
          "type": "uint256"
        }
      ],
      "name": "Transfer",
      "type": "event"
    },
    {
      "anonymous": false,
      "inputs": [
        {
          "indexed": true,
          "internalType": "address",
          "name": "sender",
          "type": "address"
        },
        {
          "indexed": true,
          "internalType": "uint24",
          "name": "pixelId",
          "type": "uint24"
        },
        {
          "indexed": false,
          "internalType": "uint256",
          "name": "amount",
          "type": "uint256"
        }
      ],
      "name": "TransferReceived",
      "type": "event"
    },
    {
      "anonymous": false,
      "inputs": [
        {
          "indexed": true,
          "internalType": "uint24",
          "name": "tokenId",
          "type": "uint24"
        }
      ],
      "name": "Update",
      "type": "event"
    },
    {
      "anonymous": false,
      "inputs": [
        {
          "indexed": true,
          "internalType": "address",
          "name": "to",
          "type": "address"
        },
        {
          "indexed": false,
          "internalType": "uint256",
          "name": "amount",
          "type": "uint256"
        }
      ],
      "name": "WithdrawCompensation",
      "type": "event"
    },
    {
      "stateMutability": "nonpayable",
      "type": "fallback"
    },
    {
      "inputs": [],
      "name": "acceptedToken",
      "outputs": [
        {
          "internalType": "contract IERC1363",
          "name": "",
          "type": "address"
        }
      ],
      "stateMutability": "view",
      "type": "function"
    },
    {
      "inputs": [
        {
          "internalType": "address",
          "name": "to",
          "type": "address"
        },
        {
          "internalType": "uint256",
          "name": "tokenId",
          "type": "uint256"
        }
      ],
      "name": "approve",
      "outputs": [],
      "stateMutability": "nonpayable",
      "type": "function"
    },
    {
      "inputs": [
        {
          "internalType": "address",
          "name": "owner",
          "type": "address"
        }
      ],
      "name": "balanceOf",
      "outputs": [
        {
          "internalType": "uint256",
          "name": "",
          "type": "uint256"
        }
      ],
      "stateMutability": "view",
      "type": "function"
    },
    {
      "inputs": [
        {
          "internalType": "address",
          "name": "sender",
          "type": "address"
        },
        {
          "internalType": "uint24",
          "name": "id",
          "type": "uint24"
        },
        {
          "internalType": "bytes3",
          "name": "colour",
          "type": "bytes3"
        },
        {
          "internalType": "uint256",
          "name": "amount",
          "type": "uint256"
        }
      ],
      "name": "buy",
      "outputs": [],
      "stateMutability": "nonpayable",
      "type": "function"
    },
    {
      "inputs": [],
      "name": "compensation",
      "outputs": [
        {
          "internalType": "uint256",
          "name": "",
          "type": "uint256"
        }
      ],
      "stateMutability": "view",
      "type": "function"
    },
    {
      "inputs": [
        {
          "internalType": "address",
          "name": "",
          "type": "address"
        }
      ],
      "name": "compensationBalances",
      "outputs": [
        {
          "internalType": "uint256",
          "name": "",
          "type": "uint256"
        }
      ],
      "stateMutability": "view",
      "type": "function"
    },
    {
      "inputs": [
        {
          "internalType": "uint256",
          "name": "tokenId",
          "type": "uint256"
        }
      ],
      "name": "getApproved",
      "outputs": [
        {
          "internalType": "address",
          "name": "",
          "type": "address"
        }
      ],
      "stateMutability": "view",
      "type": "function"
    },
    {
      "inputs": [
        {
          "internalType": "address",
          "name": "owner",
          "type": "address"
        },
        {
          "internalType": "address",
          "name": "operator",
          "type": "address"
        }
      ],
      "name": "isApprovedForAll",
      "outputs": [
        {
          "internalType": "bool",
          "name": "",
          "type": "bool"
        }
      ],
      "stateMutability": "view",
      "type": "function"
    },
    {
      "inputs": [],
      "name": "maxGasPrice",
      "outputs": [
        {
          "internalType": "uint256",
          "name": "",
          "type": "uint256"
        }
      ],
      "stateMutability": "view",
      "type": "function"
    },
    {
      "inputs": [],
      "name": "minPriceIncrement",
      "outputs": [
        {
          "internalType": "uint256",
          "name": "",
          "type": "uint256"
        }
      ],
      "stateMutability": "view",
      "type": "function"
    },
    {
      "inputs": [],
      "name": "name",
      "outputs": [
        {
          "internalType": "string",
          "name": "",
          "type": "string"
        }
      ],
      "stateMutability": "view",
      "type": "function"
    },
    {
      "inputs": [
        {
          "internalType": "address",
          "name": "operator",
          "type": "address"
        },
        {
          "internalType": "address",
          "name": "sender",
          "type": "address"
        },
        {
          "internalType": "uint256",
          "name": "amount",
          "type": "uint256"
        },
        {
          "internalType": "bytes",
          "name": "data",
          "type": "bytes"
        }
      ],
      "name": "onTransferReceived",
      "outputs": [
        {
          "internalType": "bytes4",
          "name": "",
          "type": "bytes4"
        }
      ],
      "stateMutability": "nonpayable",
      "type": "function"
    },
    {
      "inputs": [],
      "name": "owner",
      "outputs": [
        {
          "internalType": "address",
          "name": "",
          "type": "address"
        }
      ],
      "stateMutability": "view",
      "type": "function"
    },
    {
      "inputs": [
        {
          "internalType": "bool",
          "name": "withdraw",
          "type": "bool"
        },
        {
          "internalType": "uint256",
          "name": "minPriceIncrementNew",
          "type": "uint256"
        },
        {
          "internalType": "uint256",
          "name": "updatePriceNew",
          "type": "uint256"
        }
      ],
      "name": "ownerAdmin",
      "outputs": [],
      "stateMutability": "nonpayable",
      "type": "function"
    },
    {
      "inputs": [
        {
          "internalType": "uint256",
          "name": "tokenId",
          "type": "uint256"
        }
      ],
      "name": "ownerOf",
      "outputs": [
        {
          "internalType": "address",
          "name": "",
          "type": "address"
        }
      ],
      "stateMutability": "view",
      "type": "function"
    },
    {
      "inputs": [
        {
          "internalType": "uint256",
          "name": "",
          "type": "uint256"
        }
      ],
      "name": "pixels",
      "outputs": [
        {
          "internalType": "bytes3",
          "name": "colour",
          "type": "bytes3"
        },
        {
          "internalType": "uint256",
          "name": "price",
          "type": "uint256"
        }
      ],
      "stateMutability": "view",
      "type": "function"
    },
    {
      "inputs": [],
      "name": "renounceOwnership",
      "outputs": [],
      "stateMutability": "nonpayable",
      "type": "function"
    },
    {
      "inputs": [
        {
          "internalType": "address",
          "name": "from",
          "type": "address"
        },
        {
          "internalType": "address",
          "name": "to",
          "type": "address"
        },
        {
          "internalType": "uint256",
          "name": "tokenId",
          "type": "uint256"
        }
      ],
      "name": "safeTransferFrom",
      "outputs": [],
      "stateMutability": "nonpayable",
      "type": "function"
    },
    {
      "inputs": [
        {
          "internalType": "address",
          "name": "from",
          "type": "address"
        },
        {
          "internalType": "address",
          "name": "to",
          "type": "address"
        },
        {
          "internalType": "uint256",
          "name": "tokenId",
          "type": "uint256"
        },
        {
          "internalType": "bytes",
          "name": "data",
          "type": "bytes"
        }
      ],
      "name": "safeTransferFrom",
      "outputs": [],
      "stateMutability": "nonpayable",
      "type": "function"
    },
    {
      "inputs": [
        {
          "internalType": "address",
          "name": "operator",
          "type": "address"
        },
        {
          "internalType": "bool",
          "name": "approved",
          "type": "bool"
        }
      ],
      "name": "setApprovalForAll",
      "outputs": [],
      "stateMutability": "nonpayable",
      "type": "function"
    },
    {
      "inputs": [
        {
          "internalType": "bytes4",
          "name": "interfaceId",
          "type": "bytes4"
        }
      ],
      "name": "supportsInterface",
      "outputs": [
        {
          "internalType": "bool",
          "name": "",
          "type": "bool"
        }
      ],
      "stateMutability": "view",
      "type": "function"
    },
    {
      "inputs": [],
      "name": "symbol",
      "outputs": [
        {
          "internalType": "string",
          "name": "",
          "type": "string"
        }
      ],
      "stateMutability": "view",
      "type": "function"
    },
    {
      "inputs": [
        {
          "internalType": "uint256",
          "name": "tokenId",
          "type": "uint256"
        }
      ],
      "name": "tokenURI",
      "outputs": [
        {
          "internalType": "string",
          "name": "",
          "type": "string"
        }
      ],
      "stateMutability": "view",
      "type": "function"
    },
    {
      "inputs": [
        {
          "internalType": "address",
          "name": "from",
          "type": "address"
        },
        {
          "internalType": "address",
          "name": "to",
          "type": "address"
        },
        {
          "internalType": "uint256",
          "name": "tokenId",
          "type": "uint256"
        }
      ],
      "name": "transferFrom",
      "outputs": [],
      "stateMutability": "nonpayable",
      "type": "function"
    },
    {
      "inputs": [
        {
          "internalType": "address",
          "name": "newOwner",
          "type": "address"
        }
      ],
      "name": "transferOwnership",
      "outputs": [],
      "stateMutability": "nonpayable",
      "type": "function"
    },
    {
      "inputs": [
        {
          "internalType": "address",
          "name": "sender",
          "type": "address"
        },
        {
          "internalType": "uint24",
          "name": "id",
          "type": "uint24"
        },
        {
          "internalType": "bytes3",
          "name": "colour",
          "type": "bytes3"
        },
        {
          "internalType": "uint256",
          "name": "amount",
          "type": "uint256"
        }
      ],
      "name": "updatePixel",
      "outputs": [],
      "stateMutability": "nonpayable",
      "type": "function"
    },
    {
      "inputs": [],
      "name": "updatePrice",
      "outputs": [
        {
          "internalType": "uint256",
          "name": "",
          "type": "uint256"
        }
      ],
      "stateMutability": "view",
      "type": "function"
    },
    {
      "inputs": [
        {
          "internalType": "contract IERC1363Receiver",
          "name": "to",
          "type": "address"
        }
      ],
      "name": "withdrawCompensation",
      "outputs": [],
      "stateMutability": "nonpayable",
      "type": "function"
    },
    {
      "stateMutability": "payable",
      "type": "receive"
    }
  ],
  "bytecode": "0x60806040526402540be400600a553480156200001a57600080fd5b506040516200523a3803806200523a8339818101604052810190620000409190620004a4565b6040518060400160405280600f81526020017f4f6e654d696c4e6674506978656c7300000000000000000000000000000000008152506040518060400160405280600381526020017f4f4d5000000000000000000000000000000000000000000000000000000000008152508160009080519060200190620000c492919062000394565b508060019080519060200190620000dd92919062000394565b50505062000100620000f4620002c660201b60201c565b620002ce60201b60201c565b600073ffffffffffffffffffffffffffffffffffffffff168173ffffffffffffffffffffffffffffffffffffffff16141562000173576040517f08c379a00000000000000000000000000000000000000000000000000000000081526004016200016a9062000552565b60405180910390fd5b8073ffffffffffffffffffffffffffffffffffffffff166301ffc9a77fb0202a11000000000000000000000000000000000000000000000000000000006040518263ffffffff1660e01b8152600401620001ce919062000535565b60206040518083038186803b158015620001e757600080fd5b505afa158015620001fc573d6000803e3d6000fd5b505050506040513d601f19601f8201168201806040525081019062000222919062000472565b62000264576040517f08c379a00000000000000000000000000000000000000000000000000000000081526004016200025b9062000574565b60405180910390fd5b80621e848c60006101000a81548173ffffffffffffffffffffffffffffffffffffffff021916908373ffffffffffffffffffffffffffffffffffffffff160217905550600a600781905550600a600881905550600a6009819055505062000763565b600033905090565b6000600660009054906101000a900473ffffffffffffffffffffffffffffffffffffffff16905081600660006101000a81548173ffffffffffffffffffffffffffffffffffffffff021916908373ffffffffffffffffffffffffffffffffffffffff1602179055508173ffffffffffffffffffffffffffffffffffffffff168173ffffffffffffffffffffffffffffffffffffffff167f8be0079c531659141344cd1fd0a4f28419497f9722a3daafe3b4186f6b6457e060405160405180910390a35050565b828054620003a29062000627565b90600052602060002090601f016020900481019282620003c6576000855562000412565b82601f10620003e157805160ff191683800117855562000412565b8280016001018555821562000412579182015b8281111562000411578251825591602001919060010190620003f4565b5b50905062000421919062000425565b5090565b5b808211156200044057600081600090555060010162000426565b5090565b60008151905062000455816200072f565b92915050565b6000815190506200046c8162000749565b92915050565b6000602082840312156200048b576200048a6200068c565b5b60006200049b8482850162000444565b91505092915050565b600060208284031215620004bd57620004bc6200068c565b5b6000620004cd848285016200045b565b91505092915050565b620004e181620005c7565b82525050565b6000620004f6602d8362000596565b9150620005038262000691565b604082019050919050565b60006200051d60228362000596565b91506200052a82620006e0565b604082019050919050565b60006020820190506200054c6000830184620004d6565b92915050565b600060208201905081810360008301526200056d81620004e7565b9050919050565b600060208201905081810360008301526200058f816200050e565b9050919050565b600082825260208201905092915050565b6000620005b48262000607565b9050919050565b60008115159050919050565b60007fffffffff0000000000000000000000000000000000000000000000000000000082169050919050565b60006200060082620005a7565b9050919050565b600073ffffffffffffffffffffffffffffffffffffffff82169050919050565b600060028204905060018216806200064057607f821691505b602082108114156200065757620006566200065d565b5b50919050565b7f4e487b7100000000000000000000000000000000000000000000000000000000600052602260045260246000fd5b600080fd5b7f4552433133363350617961626c653a206163636570746564546f6b656e20697360008201527f207a65726f206164647265737300000000000000000000000000000000000000602082015250565b7f596f757220746f6b656e20646f65736e277420737570706f727420455243313360008201527f3633000000000000000000000000000000000000000000000000000000000000602082015250565b6200073a81620005bb565b81146200074657600080fd5b50565b6200075481620005f3565b81146200076057600080fd5b50565b614ac780620007736000396000f3fe6080604052600436106101bb5760003560e01c8063715018a6116100ec578063a22cb4651161008a578063b88d4fde11610064578063b88d4fde146106a6578063c87b56dd146106cf578063e985e9c51461070c578063f2fde38b14610749576101fb565b8063a22cb4651461062b578063abba6b0e14610654578063ad24d57f1461067d576101fb565b80638da7f232116100c65780638da7f2321461055a578063900b9a891461059857806395d89b41146105c35780639c311891146105ee576101fb565b8063715018a6146104db57806388a7ca5c146104f25780638da5cb5b1461052f576101fb565b80633de39c1111610159578063451c3d8011610133578063451c3d801461040b5780636352211e14610436578063673a7e281461047357806370a082311461049e576101fb565b80633de39c111461038c57806340d5ff58146103b757806342842e0e146103e2576101fb565b8063081812fc11610195578063081812fc146102d4578063095ea7b31461031157806312a11cde1461033a57806323b872dd14610363576101fb565b806301ffc9a714610243578063053bc9301461028057806306fdde03146102a9576101fb565b366101fb576040517f08c379a00000000000000000000000000000000000000000000000000000000081526004016101f290613d4c565b60405180910390fd5b34801561020757600080fd5b506040517f08c379a000000000000000000000000000000000000000000000000000000000815260040161023a90613d2c565b60405180910390fd5b34801561024f57600080fd5b5061026a6004803603810190610265919061344c565b610772565b6040516102779190613bb0565b60405180910390f35b34801561028c57600080fd5b506102a760048036038101906102a29190613325565b6107ec565b005b3480156102b557600080fd5b506102be610a45565b6040516102cb9190613c2a565b60405180910390f35b3480156102e057600080fd5b506102fb60048036038101906102f6919061354e565b610ad7565b6040516103089190613adb565b60405180910390f35b34801561031d57600080fd5b506103386004803603810190610333919061338c565b610b1d565b005b34801561034657600080fd5b50610361600480360381019061035c9190613325565b610c35565b005b34801561036f57600080fd5b5061038a60048036038101906103859190613187565b610e4e565b005b34801561039857600080fd5b506103a1610eae565b6040516103ae9190613f8c565b60405180910390f35b3480156103c357600080fd5b506103cc610eb4565b6040516103d99190613f8c565b60405180910390f35b3480156103ee57600080fd5b5061040960048036038101906104049190613187565b610eba565b005b34801561041757600080fd5b50610420610eda565b60405161042d9190613c0f565b60405180910390f35b34801561044257600080fd5b5061045d6004803603810190610458919061354e565b610f02565b60405161046a9190613adb565b60405180910390f35b34801561047f57600080fd5b50610488610f89565b6040516104959190613f8c565b60405180910390f35b3480156104aa57600080fd5b506104c560048036038101906104c091906130ed565b610f8f565b6040516104d29190613f8c565b60405180910390f35b3480156104e757600080fd5b506104f0611047565b005b3480156104fe57600080fd5b50610519600480360381019061051491906131da565b61105b565b6040516105269190613bf4565b60405180910390f35b34801561053b57600080fd5b506105446112c4565b6040516105519190613adb565b60405180910390f35b34801561056657600080fd5b50610581600480360381019061057c919061354e565b6112ee565b60405161058f929190613bcb565b60405180910390f35b3480156105a457600080fd5b506105ad611327565b6040516105ba9190613f8c565b60405180910390f35b3480156105cf57600080fd5b506105d861132d565b6040516105e59190613c2a565b60405180910390f35b3480156105fa57600080fd5b50610615600480360381019061061091906130ed565b6113bf565b6040516106229190613f8c565b60405180910390f35b34801561063757600080fd5b50610652600480360381019061064d91906132e5565b6113d7565b005b34801561066057600080fd5b5061067b600480360381019061067691906133f9565b6113ed565b005b34801561068957600080fd5b506106a4600480360381019061069f9190613521565b61166a565b005b3480156106b257600080fd5b506106cd60048036038101906106c89190613262565b611ab7565b005b3480156106db57600080fd5b506106f660048036038101906106f1919061354e565b611b19565b6040516107039190613c2a565b60405180910390f35b34801561071857600080fd5b50610733600480360381019061072e9190613147565b611b81565b6040516107409190613bb0565b60405180910390f35b34801561075557600080fd5b50610770600480360381019061076b91906130ed565b611c15565b005b60007f88a7ca5c000000000000000000000000000000000000000000000000000000007bffffffffffffffffffffffffffffffffffffffffffffffffffffffff1916827bffffffffffffffffffffffffffffffffffffffffffffffffffffffff191614806107e557506107e482611c99565b5b9050919050565b621e848c60009054906101000a900473ffffffffffffffffffffffffffffffffffffffff1673ffffffffffffffffffffffffffffffffffffffff1661082f611d7b565b73ffffffffffffffffffffffffffffffffffffffff1614610885576040517f08c379a000000000000000000000000000000000000000000000000000000000815260040161087c90613dac565b60405180910390fd5b600a543a11156108ca576040517f08c379a00000000000000000000000000000000000000000000000000000000081526004016108c190613e4c565b60405180910390fd5b6000600c8462ffffff16620f424081106108e7576108e661430e565b5b60020201905060075481600101546108ff919061407d565b821015610941576040517f08c379a000000000000000000000000000000000000000000000000000000000815260040161093890613e8c565b60405180910390fd5b61094f8462ffffff16611d83565b156109d45760006109648562ffffff16610f02565b9050600954600b60008373ffffffffffffffffffffffffffffffffffffffff1673ffffffffffffffffffffffffffffffffffffffff16815260200190815260200160002060008282546109b7919061407d565b925050819055506109ce81878762ffffff16611dc4565b506109e4565b6109e3858562ffffff166120be565b5b828160000160006101000a81548162ffffff021916908360e81c02179055508181600101819055508362ffffff167f1f882fc4d7efabb4ce918eb61eee899f9b59c00e6327f7349df94881649ac79c60405160405180910390a25050505050565b606060008054610a549061421e565b80601f0160208091040260200160405190810160405280929190818152602001828054610a809061421e565b8015610acd5780601f10610aa257610100808354040283529160200191610acd565b820191906000526020600020905b815481529060010190602001808311610ab057829003601f168201915b5050505050905090565b6000610ae2826120dc565b6004600083815260200190815260200160002060009054906101000a900473ffffffffffffffffffffffffffffffffffffffff169050919050565b6000610b2882610f02565b90508073ffffffffffffffffffffffffffffffffffffffff168373ffffffffffffffffffffffffffffffffffffffff161415610b99576040517f08c379a0000000000000000000000000000000000000000000000000000000008152600401610b9090613eec565b60405180910390fd5b8073ffffffffffffffffffffffffffffffffffffffff16610bb8611d7b565b73ffffffffffffffffffffffffffffffffffffffff161480610be75750610be681610be1611d7b565b611b81565b5b610c26576040517f08c379a0000000000000000000000000000000000000000000000000000000008152600401610c1d90613f0c565b60405180910390fd5b610c308383612127565b505050565b621e848c60009054906101000a900473ffffffffffffffffffffffffffffffffffffffff1673ffffffffffffffffffffffffffffffffffffffff16610c78611d7b565b73ffffffffffffffffffffffffffffffffffffffff1614610cce576040517f08c379a0000000000000000000000000000000000000000000000000000000008152600401610cc590613dac565b60405180910390fd5b600a543a1115610d13576040517f08c379a0000000000000000000000000000000000000000000000000000000008152600401610d0a90613e4c565b60405180910390fd5b8373ffffffffffffffffffffffffffffffffffffffff16610d388462ffffff16610f02565b73ffffffffffffffffffffffffffffffffffffffff1614610d8e576040517f08c379a0000000000000000000000000000000000000000000000000000000008152600401610d8590613d0c565b60405180910390fd5b600854811015610dd3576040517f08c379a0000000000000000000000000000000000000000000000000000000008152600401610dca90613e8c565b60405180910390fd5b6000600c8462ffffff16620f42408110610df057610def61430e565b5b600202019050828160000160006101000a81548162ffffff021916908360e81c02179055508362ffffff167f1f882fc4d7efabb4ce918eb61eee899f9b59c00e6327f7349df94881649ac79c60405160405180910390a25050505050565b610e5f610e59611d7b565b826121e0565b610e9e576040517f08c379a0000000000000000000000000000000000000000000000000000000008152600401610e9590613c4c565b60405180910390fd5b610ea9838383611dc4565b505050565b600a5481565b60095481565b610ed583838360405180602001604052806000815250611ab7565b505050565b621e848c60009054906101000a900473ffffffffffffffffffffffffffffffffffffffff1681565b600080610f0e83612275565b9050600073ffffffffffffffffffffffffffffffffffffffff168173ffffffffffffffffffffffffffffffffffffffff161415610f80576040517f08c379a0000000000000000000000000000000000000000000000000000000008152600401610f7790613ecc565b60405180910390fd5b80915050919050565b60085481565b60008073ffffffffffffffffffffffffffffffffffffffff168273ffffffffffffffffffffffffffffffffffffffff161415611000576040517f08c379a0000000000000000000000000000000000000000000000000000000008152600401610ff790613dec565b60405180910390fd5b600360008373ffffffffffffffffffffffffffffffffffffffff1673ffffffffffffffffffffffffffffffffffffffff168152602001908152602001600020549050919050565b61104f6122b2565b6110596000612330565b565b6000621e848c60009054906101000a900473ffffffffffffffffffffffffffffffffffffffff1673ffffffffffffffffffffffffffffffffffffffff166110a0611d7b565b73ffffffffffffffffffffffffffffffffffffffff16146110f6576040517f08c379a00000000000000000000000000000000000000000000000000000000081526004016110ed90613dac565b60405180910390fd5b60008411611139576040517f08c379a000000000000000000000000000000000000000000000000000000000815260040161113090613e8c565b60405180910390fd5b8473ffffffffffffffffffffffffffffffffffffffff168673ffffffffffffffffffffffffffffffffffffffff167f01db5e58326b109682dc160b2e51aa7bf7e8d8ccf74bc242a3c502179378905586868660405161119a93929190613fa7565b60405180910390a36111aa611d7b565b73ffffffffffffffffffffffffffffffffffffffff168573ffffffffffffffffffffffffffffffffffffffff161480156112225750600b60008673ffffffffffffffffffffffffffffffffffffffff1673ffffffffffffffffffffffffffffffffffffffff1681526020019081526020016000205484105b15611262576040517f08c379a000000000000000000000000000000000000000000000000000000000815260040161125990613f2c565b60405180910390fd5b6112b1858585858080601f016020809104026020016040519081016040528093929190818152602001838380828437600081840152601f19601f820116905080830192505050505050506123f6565b6388a7ca5c60e01b905095945050505050565b6000600660009054906101000a900473ffffffffffffffffffffffffffffffffffffffff16905090565b600c81620f4240811061130057600080fd5b600202016000915090508060000160009054906101000a900460e81b908060010154905082565b60075481565b60606001805461133c9061421e565b80601f01602080910402602001604051908101604052809291908181526020018280546113689061421e565b80156113b55780601f1061138a576101008083540402835291602001916113b5565b820191906000526020600020905b81548152906001019060200180831161139857829003601f168201915b5050505050905090565b600b6020528060005260406000206000915090505481565b6113e96113e2611d7b565b838361264d565b5050565b6113f56122b2565b81600781905550806008819055508215611639576000621e848c60009054906101000a900473ffffffffffffffffffffffffffffffffffffffff1673ffffffffffffffffffffffffffffffffffffffff166370a08231306040518263ffffffff1660e01b81526004016114689190613adb565b60206040518083038186803b15801561148057600080fd5b505afa158015611494573d6000803e3d6000fd5b505050506040513d601f19601f820116820180604052508101906114b8919061357b565b90506000811115611637576000621e848c60009054906101000a900473ffffffffffffffffffffffffffffffffffffffff1673ffffffffffffffffffffffffffffffffffffffff1663a9059cbb3073ffffffffffffffffffffffffffffffffffffffff16638da5cb5b6040518163ffffffff1660e01b815260040160206040518083038186803b15801561154b57600080fd5b505afa15801561155f573d6000803e3d6000fd5b505050506040513d601f19601f82011682018060405250810190611583919061311a565b846040518363ffffffff1660e01b81526004016115a1929190613b87565b602060405180830381600087803b1580156115bb57600080fd5b505af11580156115cf573d6000803e3d6000fd5b505050506040513d601f19601f820116820180604052508101906115f391906133cc565b905080611635576040517f08c379a000000000000000000000000000000000000000000000000000000000815260040161162c90613dcc565b60405180910390fd5b505b505b7f8e262b4e035789f59c6e735e8e0d31380235d643c1f0d55a6005ae64367d139f60405160405180910390a1505050565b600a543a11156116af576040517f08c379a00000000000000000000000000000000000000000000000000000000081526004016116a690613e4c565b60405180910390fd5b6000621e848c60009054906101000a900473ffffffffffffffffffffffffffffffffffffffff1673ffffffffffffffffffffffffffffffffffffffff166370a08231306040518263ffffffff1660e01b815260040161170e9190613adb565b60206040518083038186803b15801561172657600080fd5b505afa15801561173a573d6000803e3d6000fd5b505050506040513d601f19601f8201168201806040525081019061175e919061357b565b90506000600b600061176e611d7b565b73ffffffffffffffffffffffffffffffffffffffff1673ffffffffffffffffffffffffffffffffffffffff168152602001908152602001600020549050808210156117ee576040517f08c379a00000000000000000000000000000000000000000000000000000000081526004016117e590613eac565b60405180910390fd5b60008111611831576040517f08c379a000000000000000000000000000000000000000000000000000000000815260040161182890613e2c565b60405180910390fd5b6000600b600061183f611d7b565b73ffffffffffffffffffffffffffffffffffffffff1673ffffffffffffffffffffffffffffffffffffffff1681526020019081526020016000208190555060003273ffffffffffffffffffffffffffffffffffffffff1661189e611d7b565b73ffffffffffffffffffffffffffffffffffffffff161461196f57621e848c60009054906101000a900473ffffffffffffffffffffffffffffffffffffffff1673ffffffffffffffffffffffffffffffffffffffff16631296ee6285846040518363ffffffff1660e01b8152600401611918929190613b87565b602060405180830381600087803b15801561193257600080fd5b505af1158015611946573d6000803e3d6000fd5b505050506040513d601f19601f8201168201806040525081019061196a91906133cc565b611a21565b621e848c60009054906101000a900473ffffffffffffffffffffffffffffffffffffffff1673ffffffffffffffffffffffffffffffffffffffff1663a9059cbb85846040518363ffffffff1660e01b81526004016119ce929190613b87565b602060405180830381600087803b1580156119e857600080fd5b505af11580156119fc573d6000803e3d6000fd5b505050506040513d601f19601f82011682018060405250810190611a2091906133cc565b5b905080611a63576040517f08c379a0000000000000000000000000000000000000000000000000000000008152600401611a5a90613f6c565b60405180910390fd5b8373ffffffffffffffffffffffffffffffffffffffff167f84e37a8a66736000f6f794ac9237ef636ef664780045c9288727f61a37998c5183604051611aa99190613f8c565b60405180910390a250505050565b611ac8611ac2611d7b565b836121e0565b611b07576040517f08c379a0000000000000000000000000000000000000000000000000000000008152600401611afe90613c4c565b60405180910390fd5b611b13848484846127ba565b50505050565b6060611b24826120dc565b6000611b2e612816565b90506000815111611b4e5760405180602001604052806000815250611b79565b80611b588461282d565b604051602001611b69929190613ab7565b6040516020818303038152906040525b915050919050565b6000600560008473ffffffffffffffffffffffffffffffffffffffff1673ffffffffffffffffffffffffffffffffffffffff16815260200190815260200160002060008373ffffffffffffffffffffffffffffffffffffffff1673ffffffffffffffffffffffffffffffffffffffff16815260200190815260200160002060009054906101000a900460ff16905092915050565b611c1d6122b2565b600073ffffffffffffffffffffffffffffffffffffffff168173ffffffffffffffffffffffffffffffffffffffff161415611c8d576040517f08c379a0000000000000000000000000000000000000000000000000000000008152600401611c8490613cac565b60405180910390fd5b611c9681612330565b50565b60007f80ac58cd000000000000000000000000000000000000000000000000000000007bffffffffffffffffffffffffffffffffffffffffffffffffffffffff1916827bffffffffffffffffffffffffffffffffffffffffffffffffffffffff19161480611d6457507f5b5e139f000000000000000000000000000000000000000000000000000000007bffffffffffffffffffffffffffffffffffffffffffffffffffffffff1916827bffffffffffffffffffffffffffffffffffffffffffffffffffffffff1916145b80611d745750611d7382612905565b5b9050919050565b600033905090565b60008073ffffffffffffffffffffffffffffffffffffffff16611da583612275565b73ffffffffffffffffffffffffffffffffffffffff1614159050919050565b8273ffffffffffffffffffffffffffffffffffffffff16611de482610f02565b73ffffffffffffffffffffffffffffffffffffffff1614611e3a576040517f08c379a0000000000000000000000000000000000000000000000000000000008152600401611e3190613ccc565b60405180910390fd5b600073ffffffffffffffffffffffffffffffffffffffff168273ffffffffffffffffffffffffffffffffffffffff161415611eaa576040517f08c379a0000000000000000000000000000000000000000000000000000000008152600401611ea190613d6c565b60405180910390fd5b611eb7838383600161296f565b8273ffffffffffffffffffffffffffffffffffffffff16611ed782610f02565b73ffffffffffffffffffffffffffffffffffffffff1614611f2d576040517f08c379a0000000000000000000000000000000000000000000000000000000008152600401611f2490613ccc565b60405180910390fd5b6004600082815260200190815260200160002060006101000a81549073ffffffffffffffffffffffffffffffffffffffff02191690556001600360008573ffffffffffffffffffffffffffffffffffffffff1673ffffffffffffffffffffffffffffffffffffffff168152602001908152602001600020600082825403925050819055506001600360008473ffffffffffffffffffffffffffffffffffffffff1673ffffffffffffffffffffffffffffffffffffffff16815260200190815260200160002060008282540192505081905550816002600083815260200190815260200160002060006101000a81548173ffffffffffffffffffffffffffffffffffffffff021916908373ffffffffffffffffffffffffffffffffffffffff160217905550808273ffffffffffffffffffffffffffffffffffffffff168473ffffffffffffffffffffffffffffffffffffffff167fddf252ad1be2c89b69c2b068fc378daa952ba7f163c4a11628f55a4df523b3ef60405160405180910390a46120b98383836001612975565b505050565b6120d882826040518060200160405280600081525061297b565b5050565b6120e581611d83565b612124576040517f08c379a000000000000000000000000000000000000000000000000000000000815260040161211b90613ecc565b60405180910390fd5b50565b816004600083815260200190815260200160002060006101000a81548173ffffffffffffffffffffffffffffffffffffffff021916908373ffffffffffffffffffffffffffffffffffffffff160217905550808273ffffffffffffffffffffffffffffffffffffffff1661219a83610f02565b73ffffffffffffffffffffffffffffffffffffffff167f8c5be1e5ebec7d5bd14f71427d1e84f3dd0314c0f7b2291e5b200ac8c7c3b92560405160405180910390a45050565b6000806121ec83610f02565b90508073ffffffffffffffffffffffffffffffffffffffff168473ffffffffffffffffffffffffffffffffffffffff16148061222e575061222d8185611b81565b5b8061226c57508373ffffffffffffffffffffffffffffffffffffffff1661225484610ad7565b73ffffffffffffffffffffffffffffffffffffffff16145b91505092915050565b60006002600083815260200190815260200160002060009054906101000a900473ffffffffffffffffffffffffffffffffffffffff169050919050565b6122ba611d7b565b73ffffffffffffffffffffffffffffffffffffffff166122d86112c4565b73ffffffffffffffffffffffffffffffffffffffff161461232e576040517f08c379a000000000000000000000000000000000000000000000000000000000815260040161232590613e6c565b60405180910390fd5b565b6000600660009054906101000a900473ffffffffffffffffffffffffffffffffffffffff16905081600660006101000a81548173ffffffffffffffffffffffffffffffffffffffff021916908373ffffffffffffffffffffffffffffffffffffffff1602179055508173ffffffffffffffffffffffffffffffffffffffff168173ffffffffffffffffffffffffffffffffffffffff167f8be0079c531659141344cd1fd0a4f28419497f9722a3daafe3b4186f6b6457e060405160405180910390a35050565b60008060008060008580602001905181019061241291906134a6565b945094509450945094506000600c8462ffffff16620f424081106124395761243861430e565b5b60020201600101549050818814612485576040517f08c379a000000000000000000000000000000000000000000000000000000000815260040161247c90613f4c565b60405180910390fd5b808210156124c8576040517f08c379a00000000000000000000000000000000000000000000000000000000081526004016124bf90613e8c565b60405180910390fd5b8362ffffff168973ffffffffffffffffffffffffffffffffffffffff167f27d8f9c57375a8e2975798d2d6e43fd7c10525ee57845ff3ae8da60a837d1c4e846040516125149190613f8c565b60405180910390a3600086868686866040516024016125369493929190613b42565b604051602081830303815290604052907bffffffffffffffffffffffffffffffffffffffffffffffffffffffff19166020820180517bffffffffffffffffffffffffffffffffffffffffffffffffffffffff8381831617835250505050905060003073ffffffffffffffffffffffffffffffffffffffff16826040516125bc9190613aa0565b600060405180830381855af49150503d80600081146125f7576040519150601f19603f3d011682016040523d82523d6000602084013e6125fc565b606091505b5050905080612640576040517f08c379a000000000000000000000000000000000000000000000000000000000815260040161263790613c6c565b60405180910390fd5b5050505050505050505050565b8173ffffffffffffffffffffffffffffffffffffffff168373ffffffffffffffffffffffffffffffffffffffff1614156126bc576040517f08c379a00000000000000000000000000000000000000000000000000000000081526004016126b390613d8c565b60405180910390fd5b80600560008573ffffffffffffffffffffffffffffffffffffffff1673ffffffffffffffffffffffffffffffffffffffff16815260200190815260200160002060008473ffffffffffffffffffffffffffffffffffffffff1673ffffffffffffffffffffffffffffffffffffffff16815260200190815260200160002060006101000a81548160ff0219169083151502179055508173ffffffffffffffffffffffffffffffffffffffff168373ffffffffffffffffffffffffffffffffffffffff167f17307eab39ab6107e8899845ad3d59bd9653f200f220920489ca2b5937696c31836040516127ad9190613bb0565b60405180910390a3505050565b6127c5848484611dc4565b6127d1848484846129d6565b612810576040517f08c379a000000000000000000000000000000000000000000000000000000000815260040161280790613c8c565b60405180910390fd5b50505050565b606060405180602001604052806000815250905090565b60606000600161283c84612b6d565b01905060008167ffffffffffffffff81111561285b5761285a61433d565b5b6040519080825280601f01601f19166020018201604052801561288d5781602001600182028036833780820191505090505b509050600082602001820190505b6001156128fa578080600190039150507f3031323334353637383961626364656600000000000000000000000000000000600a86061a8153600a85816128e4576128e36142b0565b5b04945060008514156128f5576128fa565b61289b565b819350505050919050565b60007f01ffc9a7000000000000000000000000000000000000000000000000000000007bffffffffffffffffffffffffffffffffffffffffffffffffffffffff1916827bffffffffffffffffffffffffffffffffffffffffffffffffffffffff1916149050919050565b50505050565b50505050565b6129858383612cc0565b61299260008484846129d6565b6129d1576040517f08c379a00000000000000000000000000000000000000000000000000000000081526004016129c890613c8c565b60405180910390fd5b505050565b60006129f78473ffffffffffffffffffffffffffffffffffffffff16612ede565b15612b60578373ffffffffffffffffffffffffffffffffffffffff1663150b7a02612a20611d7b565b8786866040518563ffffffff1660e01b8152600401612a429493929190613af6565b602060405180830381600087803b158015612a5c57600080fd5b505af1925050508015612a8d57506040513d601f19601f82011682018060405250810190612a8a9190613479565b60015b612b10573d8060008114612abd576040519150601f19603f3d011682016040523d82523d6000602084013e612ac2565b606091505b50600081511415612b08576040517f08c379a0000000000000000000000000000000000000000000000000000000008152600401612aff90613c8c565b60405180910390fd5b805181602001fd5b63150b7a0260e01b7bffffffffffffffffffffffffffffffffffffffffffffffffffffffff1916817bffffffffffffffffffffffffffffffffffffffffffffffffffffffff191614915050612b65565b600190505b949350505050565b600080600090507a184f03e93ff9f4daa797ed6e38ed64bf6a1f0100000000000000008310612bcb577a184f03e93ff9f4daa797ed6e38ed64bf6a1f0100000000000000008381612bc157612bc06142b0565b5b0492506040810190505b6d04ee2d6d415b85acef81000000008310612c08576d04ee2d6d415b85acef81000000008381612bfe57612bfd6142b0565b5b0492506020810190505b662386f26fc100008310612c3757662386f26fc100008381612c2d57612c2c6142b0565b5b0492506010810190505b6305f5e1008310612c60576305f5e1008381612c5657612c556142b0565b5b0492506008810190505b6127108310612c85576127108381612c7b57612c7a6142b0565b5b0492506004810190505b60648310612ca85760648381612c9e57612c9d6142b0565b5b0492506002810190505b600a8310612cb7576001810190505b80915050919050565b600073ffffffffffffffffffffffffffffffffffffffff168273ffffffffffffffffffffffffffffffffffffffff161415612d30576040517f08c379a0000000000000000000000000000000000000000000000000000000008152600401612d2790613e0c565b60405180910390fd5b612d3981611d83565b15612d79576040517f08c379a0000000000000000000000000000000000000000000000000000000008152600401612d7090613cec565b60405180910390fd5b612d8760008383600161296f565b612d9081611d83565b15612dd0576040517f08c379a0000000000000000000000000000000000000000000000000000000008152600401612dc790613cec565b60405180910390fd5b6001600360008473ffffffffffffffffffffffffffffffffffffffff1673ffffffffffffffffffffffffffffffffffffffff16815260200190815260200160002060008282540192505081905550816002600083815260200190815260200160002060006101000a81548173ffffffffffffffffffffffffffffffffffffffff021916908373ffffffffffffffffffffffffffffffffffffffff160217905550808273ffffffffffffffffffffffffffffffffffffffff16600073ffffffffffffffffffffffffffffffffffffffff167fddf252ad1be2c89b69c2b068fc378daa952ba7f163c4a11628f55a4df523b3ef60405160405180910390a4612eda600083836001612975565b5050565b6000808273ffffffffffffffffffffffffffffffffffffffff163b119050919050565b6000612f14612f0f84613ffe565b613fd9565b905082815260208101848484011115612f3057612f2f61437b565b5b612f3b8482856141dc565b509392505050565b600081359050612f52816149d9565b92915050565b600081519050612f67816149d9565b92915050565b600081519050612f7c816149f0565b92915050565b600081359050612f9181614a07565b92915050565b600081519050612fa681614a07565b92915050565b600081359050612fbb81614a1e565b92915050565b600081519050612fd081614a1e565b92915050565b600081359050612fe581614a35565b92915050565b600081519050612ffa81614a35565b92915050565b60008083601f84011261301657613015614371565b5b8235905067ffffffffffffffff8111156130335761303261436c565b5b60208301915083600182028301111561304f5761304e614376565b5b9250929050565b600082601f83011261306b5761306a614371565b5b813561307b848260208601612f01565b91505092915050565b60008135905061309381614a4c565b92915050565b6000813590506130a881614a63565b92915050565b6000815190506130bd81614a63565b92915050565b6000813590506130d281614a7a565b92915050565b6000815190506130e781614a7a565b92915050565b60006020828403121561310357613102614385565b5b600061311184828501612f43565b91505092915050565b6000602082840312156131305761312f614385565b5b600061313e84828501612f58565b91505092915050565b6000806040838503121561315e5761315d614385565b5b600061316c85828601612f43565b925050602061317d85828601612f43565b9150509250929050565b6000806000606084860312156131a05761319f614385565b5b60006131ae86828701612f43565b93505060206131bf86828701612f43565b92505060406131d0868287016130c3565b9150509250925092565b6000806000806000608086880312156131f6576131f5614385565b5b600061320488828901612f43565b955050602061321588828901612f43565b9450506040613226888289016130c3565b935050606086013567ffffffffffffffff81111561324757613246614380565b5b61325388828901613000565b92509250509295509295909350565b6000806000806080858703121561327c5761327b614385565b5b600061328a87828801612f43565b945050602061329b87828801612f43565b93505060406132ac878288016130c3565b925050606085013567ffffffffffffffff8111156132cd576132cc614380565b5b6132d987828801613056565b91505092959194509250565b600080604083850312156132fc576132fb614385565b5b600061330a85828601612f43565b925050602061331b85828601612f82565b9150509250929050565b6000806000806080858703121561333f5761333e614385565b5b600061334d87828801612f43565b945050602061335e87828801613099565b935050604061336f87828801612fac565b9250506060613380878288016130c3565b91505092959194509250565b600080604083850312156133a3576133a2614385565b5b60006133b185828601612f43565b92505060206133c2858286016130c3565b9150509250929050565b6000602082840312156133e2576133e1614385565b5b60006133f084828501612f97565b91505092915050565b60008060006060848603121561341257613411614385565b5b600061342086828701612f82565b9350506020613431868287016130c3565b9250506040613442868287016130c3565b9150509250925092565b60006020828403121561346257613461614385565b5b600061347084828501612fd6565b91505092915050565b60006020828403121561348f5761348e614385565b5b600061349d84828501612feb565b91505092915050565b600080600080600060a086880312156134c2576134c1614385565b5b60006134d088828901612feb565b95505060206134e188828901612f6d565b94505060406134f2888289016130ae565b935050606061350388828901612fc1565b9250506080613514888289016130d8565b9150509295509295909350565b60006020828403121561353757613536614385565b5b600061354584828501613084565b91505092915050565b60006020828403121561356457613563614385565b5b6000613572848285016130c3565b91505092915050565b60006020828403121561359157613590614385565b5b600061359f848285016130d8565b91505092915050565b6135b1816140d3565b82525050565b6135c0816140f7565b82525050565b6135cf81614103565b82525050565b6135de8161412f565b82525050565b60006135f08385614045565b93506135fd8385846141dc565b6136068361438a565b840190509392505050565b600061361c8261402f565b6136268185614045565b93506136368185602086016141eb565b61363f8161438a565b840191505092915050565b60006136558261402f565b61365f8185614056565b935061366f8185602086016141eb565b80840191505092915050565b613684816141a6565b82525050565b60006136958261403a565b61369f8185614061565b93506136af8185602086016141eb565b6136b88161438a565b840191505092915050565b60006136ce8261403a565b6136d88185614072565b93506136e88185602086016141eb565b80840191505092915050565b6000613701602d83614061565b915061370c8261439b565b604082019050919050565b6000613724601483614061565b915061372f826143ea565b602082019050919050565b6000613747603283614061565b915061375282614413565b604082019050919050565b600061376a602683614061565b915061377582614462565b604082019050919050565b600061378d602583614061565b9150613798826144b1565b604082019050919050565b60006137b0601c83614061565b91506137bb82614500565b602082019050919050565b60006137d3601983614061565b91506137de82614529565b602082019050919050565b60006137f6601583614061565b915061380182614552565b602082019050919050565b6000613819602583614061565b91506138248261457b565b604082019050919050565b600061383c602483614061565b9150613847826145ca565b604082019050919050565b600061385f601983614061565b915061386a82614619565b602082019050919050565b6000613882602f83614061565b915061388d82614642565b604082019050919050565b60006138a5600b83614061565b91506138b082614691565b602082019050919050565b60006138c8602983614061565b91506138d3826146ba565b604082019050919050565b60006138eb602083614061565b91506138f682614709565b602082019050919050565b600061390e602283614061565b915061391982614732565b604082019050919050565b6000613931601b83614061565b915061393c82614781565b602082019050919050565b6000613954602083614061565b915061395f826147aa565b602082019050919050565b6000613977602683614061565b9150613982826147d3565b604082019050919050565b600061399a601583614061565b91506139a582614822565b602082019050919050565b60006139bd601883614061565b91506139c88261484b565b602082019050919050565b60006139e0602183614061565b91506139eb82614874565b604082019050919050565b6000613a03603d83614061565b9150613a0e826148c3565b604082019050919050565b6000613a26602c83614061565b9150613a3182614912565b604082019050919050565b6000613a49602d83614061565b9150613a5482614961565b604082019050919050565b6000613a6c600f83614061565b9150613a77826149b0565b602082019050919050565b613a8b8161418d565b82525050565b613a9a8161419c565b82525050565b6000613aac828461364a565b915081905092915050565b6000613ac382856136c3565b9150613acf82846136c3565b91508190509392505050565b6000602082019050613af060008301846135a8565b92915050565b6000608082019050613b0b60008301876135a8565b613b1860208301866135a8565b613b256040830185613a91565b8181036060830152613b378184613611565b905095945050505050565b6000608082019050613b5760008301876135a8565b613b646020830186613a82565b613b7160408301856135c6565b613b7e6060830184613a91565b95945050505050565b6000604082019050613b9c60008301856135a8565b613ba96020830184613a91565b9392505050565b6000602082019050613bc560008301846135b7565b92915050565b6000604082019050613be060008301856135c6565b613bed6020830184613a91565b9392505050565b6000602082019050613c0960008301846135d5565b92915050565b6000602082019050613c24600083018461367b565b92915050565b60006020820190508181036000830152613c44818461368a565b905092915050565b60006020820190508181036000830152613c65816136f4565b9050919050565b60006020820190508181036000830152613c8581613717565b9050919050565b60006020820190508181036000830152613ca58161373a565b9050919050565b60006020820190508181036000830152613cc58161375d565b9050919050565b60006020820190508181036000830152613ce581613780565b9050919050565b60006020820190508181036000830152613d05816137a3565b9050919050565b60006020820190508181036000830152613d25816137c6565b9050919050565b60006020820190508181036000830152613d45816137e9565b9050919050565b60006020820190508181036000830152613d658161380c565b9050919050565b60006020820190508181036000830152613d858161382f565b9050919050565b60006020820190508181036000830152613da581613852565b9050919050565b60006020820190508181036000830152613dc581613875565b9050919050565b60006020820190508181036000830152613de581613898565b9050919050565b60006020820190508181036000830152613e05816138bb565b9050919050565b60006020820190508181036000830152613e25816138de565b9050919050565b60006020820190508181036000830152613e4581613901565b9050919050565b60006020820190508181036000830152613e6581613924565b9050919050565b60006020820190508181036000830152613e8581613947565b9050919050565b60006020820190508181036000830152613ea58161396a565b9050919050565b60006020820190508181036000830152613ec58161398d565b9050919050565b60006020820190508181036000830152613ee5816139b0565b9050919050565b60006020820190508181036000830152613f05816139d3565b9050919050565b60006020820190508181036000830152613f25816139f6565b9050919050565b60006020820190508181036000830152613f4581613a19565b9050919050565b60006020820190508181036000830152613f6581613a3c565b9050919050565b60006020820190508181036000830152613f8581613a5f565b9050919050565b6000602082019050613fa16000830184613a91565b92915050565b6000604082019050613fbc6000830186613a91565b8181036020830152613fcf8184866135e4565b9050949350505050565b6000613fe3613ff4565b9050613fef8282614250565b919050565b6000604051905090565b600067ffffffffffffffff8211156140195761401861433d565b5b6140228261438a565b9050602081019050919050565b600081519050919050565b600081519050919050565b600082825260208201905092915050565b600081905092915050565b600082825260208201905092915050565b600081905092915050565b60006140888261419c565b91506140938361419c565b9250827fffffffffffffffffffffffffffffffffffffffffffffffffffffffffffffffff038211156140c8576140c7614281565b5b828201905092915050565b60006140de8261416d565b9050919050565b60006140f08261416d565b9050919050565b60008115159050919050565b60007fffffff000000000000000000000000000000000000000000000000000000000082169050919050565b60007fffffffff0000000000000000000000000000000000000000000000000000000082169050919050565b6000614166826140d3565b9050919050565b600073ffffffffffffffffffffffffffffffffffffffff82169050919050565b600062ffffff82169050919050565b6000819050919050565b60006141b1826141b8565b9050919050565b60006141c3826141ca565b9050919050565b60006141d58261416d565b9050919050565b82818337600083830152505050565b60005b838110156142095780820151818401526020810190506141ee565b83811115614218576000848401525b50505050565b6000600282049050600182168061423657607f821691505b6020821081141561424a576142496142df565b5b50919050565b6142598261438a565b810181811067ffffffffffffffff821117156142785761427761433d565b5b80604052505050565b7f4e487b7100000000000000000000000000000000000000000000000000000000600052601160045260246000fd5b7f4e487b7100000000000000000000000000000000000000000000000000000000600052601260045260246000fd5b7f4e487b7100000000000000000000000000000000000000000000000000000000600052602260045260246000fd5b7f4e487b7100000000000000000000000000000000000000000000000000000000600052603260045260246000fd5b7f4e487b7100000000000000000000000000000000000000000000000000000000600052604160045260246000fd5b600080fd5b600080fd5b600080fd5b600080fd5b600080fd5b600080fd5b6000601f19601f8301169050919050565b7f4552433732313a2063616c6c6572206973206e6f7420746f6b656e206f776e6560008201527f72206f7220617070726f76656400000000000000000000000000000000000000602082015250565b7f46756e6374696f6e2063616c6c206661696c6564000000000000000000000000600082015250565b7f4552433732313a207472616e7366657220746f206e6f6e20455243373231526560008201527f63656976657220696d706c656d656e7465720000000000000000000000000000602082015250565b7f4f776e61626c653a206e6577206f776e657220697320746865207a65726f206160008201527f6464726573730000000000000000000000000000000000000000000000000000602082015250565b7f4552433732313a207472616e736665722066726f6d20696e636f72726563742060008201527f6f776e6572000000000000000000000000000000000000000000000000000000602082015250565b7f4552433732313a20746f6b656e20616c7265616479206d696e74656400000000600082015250565b7f4f6e6c7920746865206f776e65722063616e2075706461746500000000000000600082015250565b7f556e6b6e6f776e2066756e6374696f6e2063616c6c0000000000000000000000600082015250565b7f416363657074732070757263686173657320696e204c756e6120746f6b656e7360008201527f206f6e6c79000000000000000000000000000000000000000000000000000000602082015250565b7f4552433732313a207472616e7366657220746f20746865207a65726f2061646460008201527f7265737300000000000000000000000000000000000000000000000000000000602082015250565b7f4552433732313a20617070726f766520746f2063616c6c657200000000000000600082015250565b7f4552433133363350617961626c653a206163636570747320707572636861736560008201527f7320696e204c756e6173206f6e6c790000000000000000000000000000000000602082015250565b7f73656e64206661696c6564000000000000000000000000000000000000000000600082015250565b7f4552433732313a2061646472657373207a65726f206973206e6f74206120766160008201527f6c6964206f776e65720000000000000000000000000000000000000000000000602082015250565b7f4552433732313a206d696e7420746f20746865207a65726f2061646472657373600082015250565b7f496e73756666696369656e7420636f6d70656e736174696f6e2062616c616e6360008201527f6521000000000000000000000000000000000000000000000000000000000000602082015250565b7f476173207072696365206578636565647320746865206c696d69740000000000600082015250565b7f4f776e61626c653a2063616c6c6572206973206e6f7420746865206f776e6572600082015250565b7f53746f7020666f6f6c696e67206d65212041726520796f7520676f696e67207460008201527f6f207061793f0000000000000000000000000000000000000000000000000000602082015250565b7f496e73756666696369656e742062616c616e6365210000000000000000000000600082015250565b7f4552433732313a20696e76616c696420746f6b656e2049440000000000000000600082015250565b7f4552433732313a20617070726f76616c20746f2063757272656e74206f776e6560008201527f7200000000000000000000000000000000000000000000000000000000000000602082015250565b7f4552433732313a20617070726f76652063616c6c6572206973206e6f7420746f60008201527f6b656e206f776e6572206f7220617070726f76656420666f7220616c6c000000602082015250565b7f596f7520617265206e6f7420616c6c6f77656420746f2077697468647261772060008201527f636f6d70656e736174696f6e0000000000000000000000000000000000000000602082015250565b7f46616b6520616d6f756e7420657863656564732061637475616c20616d6f756e60008201527f74207472616e7366657272656400000000000000000000000000000000000000602082015250565b7f7769746864726177206661696c65640000000000000000000000000000000000600082015250565b6149e2816140d3565b81146149ed57600080fd5b50565b6149f9816140e5565b8114614a0457600080fd5b50565b614a10816140f7565b8114614a1b57600080fd5b50565b614a2781614103565b8114614a3257600080fd5b50565b614a3e8161412f565b8114614a4957600080fd5b50565b614a558161415b565b8114614a6057600080fd5b50565b614a6c8161418d565b8114614a7757600080fd5b50565b614a838161419c565b8114614a8e57600080fd5b5056fea2646970667358221220cb4d645ae01d47ffcb84e49ac1ea11ad5e8edf9cd8d4b5e41f04f088217fda0064736f6c63430008070033",
  "linkReferences": {},
  "deployedLinkReferences": {}
}