{
  "_format": "hh-sol-artifact-1",
  "contractName": "MeowToken",
  "sourceName": "contracts/MeowToken.sol",
  "abi": [
    {
      "inputs": [
        {
          "internalType": "uint256",
          "name": "initialSupply",
          "type": "uint256"
        }
      ],
      "stateMutability": "nonpayable",
      "type": "constructor"
    },
    {
      "anonymous": false,
      "inputs": [
        {
          "indexed": true,
          "internalType": "address",
          "name": "owner",
          "type": "address"
        },
        {
          "indexed": true,
          "internalType": "address",
          "name": "spender",
          "type": "address"
        },
        {
          "indexed": false,
          "internalType": "uint256",
          "name": "value",
          "type": "uint256"
        }
      ],
      "name": "Approval",
      "type": "event"
    },
    {
      "anonymous": false,
      "inputs": [
        {
          "indexed": true,
          "internalType": "address",
          "name": "from",
          "type": "address"
        },
        {
          "indexed": true,
          "internalType": "address",
          "name": "to",
          "type": "address"
        },
        {
          "indexed": false,
          "internalType": "uint256",
          "name": "value",
          "type": "uint256"
        }
      ],
      "name": "Transfer",
      "type": "event"
    },
    {
      "stateMutability": "nonpayable",
      "type": "fallback"
    },
    {
      "inputs": [
        {
          "internalType": "address",
          "name": "owner",
          "type": "address"
        },
        {
          "internalType": "address",
          "name": "spender",
          "type": "address"
        }
      ],
      "name": "allowance",
      "outputs": [
        {
          "internalType": "uint256",
          "name": "",
          "type": "uint256"
        }
      ],
      "stateMutability": "view",
      "type": "function"
    },
    {
      "inputs": [
        {
          "internalType": "address",
          "name": "spender",
          "type": "address"
        },
        {
          "internalType": "uint256",
          "name": "amount",
          "type": "uint256"
        }
      ],
      "name": "approve",
      "outputs": [
        {
          "internalType": "bool",
          "name": "",
          "type": "bool"
        }
      ],
      "stateMutability": "nonpayable",
      "type": "function"
    },
    {
      "inputs": [
        {
          "internalType": "address",
          "name": "spender",
          "type": "address"
        },
        {
          "internalType": "uint256",
          "name": "amount",
          "type": "uint256"
        }
      ],
      "name": "approveAndCall",
      "outputs": [
        {
          "internalType": "bool",
          "name": "",
          "type": "bool"
        }
      ],
      "stateMutability": "nonpayable",
      "type": "function"
    },
    {
      "inputs": [
        {
          "internalType": "address",
          "name": "spender",
          "type": "address"
        },
        {
          "internalType": "uint256",
          "name": "amount",
          "type": "uint256"
        },
        {
          "internalType": "bytes",
          "name": "data",
          "type": "bytes"
        }
      ],
      "name": "approveAndCall",
      "outputs": [
        {
          "internalType": "bool",
          "name": "",
          "type": "bool"
        }
      ],
      "stateMutability": "nonpayable",
      "type": "function"
    },
    {
      "inputs": [
        {
          "internalType": "address",
          "name": "account",
          "type": "address"
        }
      ],
      "name": "balanceOf",
      "outputs": [
        {
          "internalType": "uint256",
          "name": "",
          "type": "uint256"
        }
      ],
      "stateMutability": "view",
      "type": "function"
    },
    {
      "inputs": [],
      "name": "decimals",
      "outputs": [
        {
          "internalType": "uint8",
          "name": "",
          "type": "uint8"
        }
      ],
      "stateMutability": "view",
      "type": "function"
    },
    {
      "inputs": [
        {
          "internalType": "address",
          "name": "spender",
          "type": "address"
        },
        {
          "internalType": "uint256",
          "name": "subtractedValue",
          "type": "uint256"
        }
      ],
      "name": "decreaseAllowance",
      "outputs": [
        {
          "internalType": "bool",
          "name": "",
          "type": "bool"
        }
      ],
      "stateMutability": "nonpayable",
      "type": "function"
    },
    {
      "inputs": [
        {
          "internalType": "address",
          "name": "spender",
          "type": "address"
        },
        {
          "internalType": "uint256",
          "name": "addedValue",
          "type": "uint256"
        }
      ],
      "name": "increaseAllowance",
      "outputs": [
        {
          "internalType": "bool",
          "name": "",
          "type": "bool"
        }
      ],
      "stateMutability": "nonpayable",
      "type": "function"
    },
    {
      "inputs": [],
      "name": "name",
      "outputs": [
        {
          "internalType": "string",
          "name": "",
          "type": "string"
        }
      ],
      "stateMutability": "view",
      "type": "function"
    },
    {
      "inputs": [
        {
          "internalType": "bytes4",
          "name": "interfaceId",
          "type": "bytes4"
        }
      ],
      "name": "supportsInterface",
      "outputs": [
        {
          "internalType": "bool",
          "name": "",
          "type": "bool"
        }
      ],
      "stateMutability": "view",
      "type": "function"
    },
    {
      "inputs": [],
      "name": "symbol",
      "outputs": [
        {
          "internalType": "string",
          "name": "",
          "type": "string"
        }
      ],
      "stateMutability": "view",
      "type": "function"
    },
    {
      "inputs": [],
      "name": "totalSupply",
      "outputs": [
        {
          "internalType": "uint256",
          "name": "",
          "type": "uint256"
        }
      ],
      "stateMutability": "view",
      "type": "function"
    },
    {
      "inputs": [
        {
          "internalType": "address",
          "name": "to",
          "type": "address"
        },
        {
          "internalType": "uint256",
          "name": "amount",
          "type": "uint256"
        }
      ],
      "name": "transfer",
      "outputs": [
        {
          "internalType": "bool",
          "name": "",
          "type": "bool"
        }
      ],
      "stateMutability": "nonpayable",
      "type": "function"
    },
    {
      "inputs": [
        {
          "internalType": "address",
          "name": "to",
          "type": "address"
        },
        {
          "internalType": "uint256",
          "name": "amount",
          "type": "uint256"
        }
      ],
      "name": "transferAndCall",
      "outputs": [
        {
          "internalType": "bool",
          "name": "",
          "type": "bool"
        }
      ],
      "stateMutability": "nonpayable",
      "type": "function"
    },
    {
      "inputs": [
        {
          "internalType": "address",
          "name": "to",
          "type": "address"
        },
        {
          "internalType": "uint256",
          "name": "amount",
          "type": "uint256"
        },
        {
          "internalType": "bytes",
          "name": "data",
          "type": "bytes"
        }
      ],
      "name": "transferAndCall",
      "outputs": [
        {
          "internalType": "bool",
          "name": "",
          "type": "bool"
        }
      ],
      "stateMutability": "nonpayable",
      "type": "function"
    },
    {
      "inputs": [
        {
          "internalType": "address",
          "name": "from",
          "type": "address"
        },
        {
          "internalType": "address",
          "name": "to",
          "type": "address"
        },
        {
          "internalType": "uint256",
          "name": "amount",
          "type": "uint256"
        }
      ],
      "name": "transferFrom",
      "outputs": [
        {
          "internalType": "bool",
          "name": "",
          "type": "bool"
        }
      ],
      "stateMutability": "nonpayable",
      "type": "function"
    },
    {
      "inputs": [
        {
          "internalType": "address",
          "name": "from",
          "type": "address"
        },
        {
          "internalType": "address",
          "name": "to",
          "type": "address"
        },
        {
          "internalType": "uint256",
          "name": "amount",
          "type": "uint256"
        },
        {
          "internalType": "bytes",
          "name": "data",
          "type": "bytes"
        }
      ],
      "name": "transferFromAndCall",
      "outputs": [
        {
          "internalType": "bool",
          "name": "",
          "type": "bool"
        }
      ],
      "stateMutability": "nonpayable",
      "type": "function"
    },
    {
      "inputs": [
        {
          "internalType": "address",
          "name": "from",
          "type": "address"
        },
        {
          "internalType": "address",
          "name": "to",
          "type": "address"
        },
        {
          "internalType": "uint256",
          "name": "amount",
          "type": "uint256"
        }
      ],
      "name": "transferFromAndCall",
      "outputs": [
        {
          "internalType": "bool",
          "name": "",
          "type": "bool"
        }
      ],
      "stateMutability": "nonpayable",
      "type": "function"
    }
  ],
  "bytecode": "0x60806040523480156200001157600080fd5b50604051620027133803806200271383398181016040528101906200003791906200032f565b6040518060400160405280600a81526020017f4d656f7720746f6b656e000000000000000000000000000000000000000000008152506040518060400160405280600381526020017f4d454f00000000000000000000000000000000000000000000000000000000008152508160039080519060200190620000bb92919062000268565b508060049080519060200190620000d492919062000268565b505050620000e93382620000f060201b60201c565b506200052c565b600073ffffffffffffffffffffffffffffffffffffffff168273ffffffffffffffffffffffffffffffffffffffff16141562000163576040517f08c379a00000000000000000000000000000000000000000000000000000000081526004016200015a9062000399565b60405180910390fd5b62000177600083836200025e60201b60201c565b80600260008282546200018b9190620003e9565b92505081905550806000808473ffffffffffffffffffffffffffffffffffffffff1673ffffffffffffffffffffffffffffffffffffffff168152602001908152602001600020600082825401925050819055508173ffffffffffffffffffffffffffffffffffffffff16600073ffffffffffffffffffffffffffffffffffffffff167fddf252ad1be2c89b69c2b068fc378daa952ba7f163c4a11628f55a4df523b3ef836040516200023e9190620003bb565b60405180910390a36200025a600083836200026360201b60201c565b5050565b505050565b505050565b828054620002769062000450565b90600052602060002090601f0160209004810192826200029a5760008555620002e6565b82601f10620002b557805160ff1916838001178555620002e6565b82800160010185558215620002e6579182015b82811115620002e5578251825591602001919060010190620002c8565b5b509050620002f59190620002f9565b5090565b5b8082111562000314576000816000905550600101620002fa565b5090565b600081519050620003298162000512565b92915050565b600060208284031215620003485762000347620004e4565b5b6000620003588482850162000318565b91505092915050565b600062000370601f83620003d8565b91506200037d82620004e9565b602082019050919050565b620003938162000446565b82525050565b60006020820190508181036000830152620003b48162000361565b9050919050565b6000602082019050620003d2600083018462000388565b92915050565b600082825260208201905092915050565b6000620003f68262000446565b9150620004038362000446565b9250827fffffffffffffffffffffffffffffffffffffffffffffffffffffffffffffffff038211156200043b576200043a62000486565b5b828201905092915050565b6000819050919050565b600060028204905060018216806200046957607f821691505b6020821081141562000480576200047f620004b5565b5b50919050565b7f4e487b7100000000000000000000000000000000000000000000000000000000600052601160045260246000fd5b7f4e487b7100000000000000000000000000000000000000000000000000000000600052602260045260246000fd5b600080fd5b7f45524332303a206d696e7420746f20746865207a65726f206164647265737300600082015250565b6200051d8162000446565b81146200052957600080fd5b50565b6121d7806200053c6000396000f3fe608060405234801561001057600080fd5b506004361061011a5760003560e01c80634000aea0116100a2578063a9059cbb11610071578063a9059cbb1461037e578063c1d34b89146103ae578063cae9ca51146103de578063d8fbe9941461040e578063dd62ed3e1461043e5761011b565b80634000aea0146102d057806370a082311461030057806395d89b4114610330578063a457c2d71461034e5761011b565b806318160ddd116100e957806318160ddd1461020457806323b872dd14610222578063313ce567146102525780633177029f1461027057806339509351146102a05761011b565b806301ffc9a71461015657806306fdde0314610186578063095ea7b3146101a45780631296ee62146101d45761011b565b5b6040517f08c379a000000000000000000000000000000000000000000000000000000000815260040161014d90611924565b60405180910390fd5b610170600480360381019061016b91906114eb565b61046e565b60405161017d9190611867565b60405180910390f35b61018e6104e8565b60405161019b9190611882565b60405180910390f35b6101be60048036038101906101b9919061143c565b61057a565b6040516101cb9190611867565b60405180910390f35b6101ee60048036038101906101e9919061143c565b61059d565b6040516101fb9190611867565b60405180910390f35b61020c6105c1565b6040516102199190611a64565b60405180910390f35b61023c60048036038101906102379190611366565b6105cb565b6040516102499190611867565b60405180910390f35b61025a6105fa565b6040516102679190611a7f565b60405180910390f35b61028a6004803603810190610285919061143c565b610603565b6040516102979190611867565b60405180910390f35b6102ba60048036038101906102b5919061143c565b610627565b6040516102c79190611867565b60405180910390f35b6102ea60048036038101906102e5919061147c565b61065e565b6040516102f79190611867565b60405180910390f35b61031a600480360381019061031591906112f9565b610689565b6040516103279190611a64565b60405180910390f35b6103386106d1565b6040516103459190611882565b60405180910390f35b6103686004803603810190610363919061143c565b610763565b6040516103759190611867565b60405180910390f35b6103986004803603810190610393919061143c565b6107da565b6040516103a59190611867565b60405180910390f35b6103c860048036038101906103c391906113b9565b6107fd565b6040516103d59190611867565b60405180910390f35b6103f860048036038101906103f3919061147c565b610823565b6040516104059190611867565b60405180910390f35b61042860048036038101906104239190611366565b610846565b6040516104359190611867565b60405180910390f35b61045860048036038101906104539190611326565b61086c565b6040516104659190611a64565b60405180910390f35b60007fb0202a11000000000000000000000000000000000000000000000000000000007bffffffffffffffffffffffffffffffffffffffffffffffffffffffff1916827bffffffffffffffffffffffffffffffffffffffffffffffffffffffff191614806104e157506104e0826108f3565b5b9050919050565b6060600380546104f790611c41565b80601f016020809104026020016040519081016040528092919081815260200182805461052390611c41565b80156105705780601f1061054557610100808354040283529160200191610570565b820191906000526020600020905b81548152906001019060200180831161055357829003601f168201915b5050505050905090565b60008061058561095d565b9050610592818585610965565b600191505092915050565b60006105b983836040518060200160405280600081525061065e565b905092915050565b6000600254905090565b6000806105d661095d565b90506105e3858285610b30565b6105ee858585610bbc565b60019150509392505050565b60006012905090565b600061061f838360405180602001604052806000815250610823565b905092915050565b60008061063261095d565b9050610653818585610644858961086c565b61064e9190611b28565b610965565b600191505092915050565b600061066a84846107da565b5061067e61067661095d565b858585610e34565b600190509392505050565b60008060008373ffffffffffffffffffffffffffffffffffffffff1673ffffffffffffffffffffffffffffffffffffffff168152602001908152602001600020549050919050565b6060600480546106e090611c41565b80601f016020809104026020016040519081016040528092919081815260200182805461070c90611c41565b80156107595780601f1061072e57610100808354040283529160200191610759565b820191906000526020600020905b81548152906001019060200180831161073c57829003601f168201915b5050505050905090565b60008061076e61095d565b9050600061077c828661086c565b9050838110156107c1576040517f08c379a00000000000000000000000000000000000000000000000000000000081526004016107b890611a24565b60405180910390fd5b6107ce8286868403610965565b60019250505092915050565b6000806107e561095d565b90506107f2818585610bbc565b600191505092915050565b600061080a8585856105cb565b5061081785858585610e34565b60019050949350505050565b600061082f848461057a565b5061083b848484611031565b600190509392505050565b6000610863848484604051806020016040528060008152506107fd565b90509392505050565b6000600160008473ffffffffffffffffffffffffffffffffffffffff1673ffffffffffffffffffffffffffffffffffffffff16815260200190815260200160002060008373ffffffffffffffffffffffffffffffffffffffff1673ffffffffffffffffffffffffffffffffffffffff16815260200190815260200160002054905092915050565b60007f01ffc9a7000000000000000000000000000000000000000000000000000000007bffffffffffffffffffffffffffffffffffffffffffffffffffffffff1916827bffffffffffffffffffffffffffffffffffffffffffffffffffffffff1916149050919050565b600033905090565b600073ffffffffffffffffffffffffffffffffffffffff168373ffffffffffffffffffffffffffffffffffffffff1614156109d5576040517f08c379a00000000000000000000000000000000000000000000000000000000081526004016109cc906119c4565b60405180910390fd5b600073ffffffffffffffffffffffffffffffffffffffff168273ffffffffffffffffffffffffffffffffffffffff161415610a45576040517f08c379a0000000000000000000000000000000000000000000000000000000008152600401610a3c906118e4565b60405180910390fd5b80600160008573ffffffffffffffffffffffffffffffffffffffff1673ffffffffffffffffffffffffffffffffffffffff16815260200190815260200160002060008473ffffffffffffffffffffffffffffffffffffffff1673ffffffffffffffffffffffffffffffffffffffff168152602001908152602001600020819055508173ffffffffffffffffffffffffffffffffffffffff168373ffffffffffffffffffffffffffffffffffffffff167f8c5be1e5ebec7d5bd14f71427d1e84f3dd0314c0f7b2291e5b200ac8c7c3b92583604051610b239190611a64565b60405180910390a3505050565b6000610b3c848461086c565b90507fffffffffffffffffffffffffffffffffffffffffffffffffffffffffffffffff8114610bb65781811015610ba8576040517f08c379a0000000000000000000000000000000000000000000000000000000008152600401610b9f90611904565b60405180910390fd5b610bb58484848403610965565b5b50505050565b600073ffffffffffffffffffffffffffffffffffffffff168373ffffffffffffffffffffffffffffffffffffffff161415610c2c576040517f08c379a0000000000000000000000000000000000000000000000000000000008152600401610c23906119a4565b60405180910390fd5b600073ffffffffffffffffffffffffffffffffffffffff168273ffffffffffffffffffffffffffffffffffffffff161415610c9c576040517f08c379a0000000000000000000000000000000000000000000000000000000008152600401610c93906118a4565b60405180910390fd5b610ca783838361122b565b60008060008573ffffffffffffffffffffffffffffffffffffffff1673ffffffffffffffffffffffffffffffffffffffff16815260200190815260200160002054905081811015610d2d576040517f08c379a0000000000000000000000000000000000000000000000000000000008152600401610d2490611944565b60405180910390fd5b8181036000808673ffffffffffffffffffffffffffffffffffffffff1673ffffffffffffffffffffffffffffffffffffffff16815260200190815260200160002081905550816000808573ffffffffffffffffffffffffffffffffffffffff1673ffffffffffffffffffffffffffffffffffffffff168152602001908152602001600020600082825401925050819055508273ffffffffffffffffffffffffffffffffffffffff168473ffffffffffffffffffffffffffffffffffffffff167fddf252ad1be2c89b69c2b068fc378daa952ba7f163c4a11628f55a4df523b3ef84604051610e1b9190611a64565b60405180910390a3610e2e848484611230565b50505050565b60008373ffffffffffffffffffffffffffffffffffffffff163b1415610e8f576040517f08c379a0000000000000000000000000000000000000000000000000000000008152600401610e86906119e4565b60405180910390fd5b8273ffffffffffffffffffffffffffffffffffffffff166388a7ca5c610eb361095d565b8685856040518563ffffffff1660e01b8152600401610ed594939291906117dd565b602060405180830381600087803b158015610eef57600080fd5b505af1925050508015610f2057506040513d601f19601f82011682018060405250810190610f1d9190611518565b60015b610fa3573d8060008114610f50576040519150601f19603f3d011682016040523d82523d6000602084013e610f55565b606091505b50600081511415610f9b576040517f08c379a0000000000000000000000000000000000000000000000000000000008152600401610f9290611a44565b60405180910390fd5b805181602001fd5b6388a7ca5c60e01b7bffffffffffffffffffffffffffffffffffffffffffffffffffffffff1916817bffffffffffffffffffffffffffffffffffffffffffffffffffffffff19161461102a576040517f08c379a000000000000000000000000000000000000000000000000000000000815260040161102190611a04565b60405180910390fd5b5050505050565b60008373ffffffffffffffffffffffffffffffffffffffff163b141561108c576040517f08c379a0000000000000000000000000000000000000000000000000000000008152600401611083906118c4565b60405180910390fd5b8273ffffffffffffffffffffffffffffffffffffffff16637b04a2d06110b061095d565b84846040518463ffffffff1660e01b81526004016110d093929190611829565b602060405180830381600087803b1580156110ea57600080fd5b505af192505050801561111b57506040513d601f19601f820116820180604052508101906111189190611518565b60015b61119e573d806000811461114b576040519150601f19603f3d011682016040523d82523d6000602084013e611150565b606091505b50600081511415611196576040517f08c379a000000000000000000000000000000000000000000000000000000000815260040161118d90611964565b60405180910390fd5b805181602001fd5b637b04a2d060e01b7bffffffffffffffffffffffffffffffffffffffffffffffffffffffff1916817bffffffffffffffffffffffffffffffffffffffffffffffffffffffff191614611225576040517f08c379a000000000000000000000000000000000000000000000000000000000815260040161121c90611984565b60405180910390fd5b50505050565b505050565b505050565b600061124861124384611abf565b611a9a565b90508281526020810184848401111561126457611263611d36565b5b61126f848285611bff565b509392505050565b6000813590506112868161215c565b92915050565b60008135905061129b81612173565b92915050565b6000815190506112b081612173565b92915050565b600082601f8301126112cb576112ca611d31565b5b81356112db848260208601611235565b91505092915050565b6000813590506112f38161218a565b92915050565b60006020828403121561130f5761130e611d40565b5b600061131d84828501611277565b91505092915050565b6000806040838503121561133d5761133c611d40565b5b600061134b85828601611277565b925050602061135c85828601611277565b9150509250929050565b60008060006060848603121561137f5761137e611d40565b5b600061138d86828701611277565b935050602061139e86828701611277565b92505060406113af868287016112e4565b9150509250925092565b600080600080608085870312156113d3576113d2611d40565b5b60006113e187828801611277565b94505060206113f287828801611277565b9350506040611403878288016112e4565b925050606085013567ffffffffffffffff81111561142457611423611d3b565b5b611430878288016112b6565b91505092959194509250565b6000806040838503121561145357611452611d40565b5b600061146185828601611277565b9250506020611472858286016112e4565b9150509250929050565b60008060006060848603121561149557611494611d40565b5b60006114a386828701611277565b93505060206114b4868287016112e4565b925050604084013567ffffffffffffffff8111156114d5576114d4611d3b565b5b6114e1868287016112b6565b9150509250925092565b60006020828403121561150157611500611d40565b5b600061150f8482850161128c565b91505092915050565b60006020828403121561152e5761152d611d40565b5b600061153c848285016112a1565b91505092915050565b61154e81611b7e565b82525050565b61155d81611b90565b82525050565b600061156e82611af0565b6115788185611b06565b9350611588818560208601611c0e565b61159181611d45565b840191505092915050565b60006115a782611afb565b6115b18185611b17565b93506115c1818560208601611c0e565b6115ca81611d45565b840191505092915050565b60006115e2602383611b17565b91506115ed82611d56565b604082019050919050565b6000611605602783611b17565b915061161082611da5565b604082019050919050565b6000611628602283611b17565b915061163382611df4565b604082019050919050565b600061164b601d83611b17565b915061165682611e43565b602082019050919050565b600061166e601583611b17565b915061167982611e6c565b602082019050919050565b6000611691602683611b17565b915061169c82611e95565b604082019050919050565b60006116b4603183611b17565b91506116bf82611ee4565b604082019050919050565b60006116d7602483611b17565b91506116e282611f33565b604082019050919050565b60006116fa602583611b17565b915061170582611f82565b604082019050919050565b600061171d602483611b17565b915061172882611fd1565b604082019050919050565b6000611740602983611b17565b915061174b82612020565b604082019050919050565b6000611763602583611b17565b915061176e8261206f565b604082019050919050565b6000611786602583611b17565b9150611791826120be565b604082019050919050565b60006117a9603483611b17565b91506117b48261210d565b604082019050919050565b6117c881611be8565b82525050565b6117d781611bf2565b82525050565b60006080820190506117f26000830187611545565b6117ff6020830186611545565b61180c60408301856117bf565b818103606083015261181e8184611563565b905095945050505050565b600060608201905061183e6000830186611545565b61184b60208301856117bf565b818103604083015261185d8184611563565b9050949350505050565b600060208201905061187c6000830184611554565b92915050565b6000602082019050818103600083015261189c818461159c565b905092915050565b600060208201905081810360008301526118bd816115d5565b9050919050565b600060208201905081810360008301526118dd816115f8565b9050919050565b600060208201905081810360008301526118fd8161161b565b9050919050565b6000602082019050818103600083015261191d8161163e565b9050919050565b6000602082019050818103600083015261193d81611661565b9050919050565b6000602082019050818103600083015261195d81611684565b9050919050565b6000602082019050818103600083015261197d816116a7565b9050919050565b6000602082019050818103600083015261199d816116ca565b9050919050565b600060208201905081810360008301526119bd816116ed565b9050919050565b600060208201905081810360008301526119dd81611710565b9050919050565b600060208201905081810360008301526119fd81611733565b9050919050565b60006020820190508181036000830152611a1d81611756565b9050919050565b60006020820190508181036000830152611a3d81611779565b9050919050565b60006020820190508181036000830152611a5d8161179c565b9050919050565b6000602082019050611a7960008301846117bf565b92915050565b6000602082019050611a9460008301846117ce565b92915050565b6000611aa4611ab5565b9050611ab08282611c73565b919050565b6000604051905090565b600067ffffffffffffffff821115611ada57611ad9611d02565b5b611ae382611d45565b9050602081019050919050565b600081519050919050565b600081519050919050565b600082825260208201905092915050565b600082825260208201905092915050565b6000611b3382611be8565b9150611b3e83611be8565b9250827fffffffffffffffffffffffffffffffffffffffffffffffffffffffffffffffff03821115611b7357611b72611ca4565b5b828201905092915050565b6000611b8982611bc8565b9050919050565b60008115159050919050565b60007fffffffff0000000000000000000000000000000000000000000000000000000082169050919050565b600073ffffffffffffffffffffffffffffffffffffffff82169050919050565b6000819050919050565b600060ff82169050919050565b82818337600083830152505050565b60005b83811015611c2c578082015181840152602081019050611c11565b83811115611c3b576000848401525b50505050565b60006002820490506001821680611c5957607f821691505b60208210811415611c6d57611c6c611cd3565b5b50919050565b611c7c82611d45565b810181811067ffffffffffffffff82111715611c9b57611c9a611d02565b5b80604052505050565b7f4e487b7100000000000000000000000000000000000000000000000000000000600052601160045260246000fd5b7f4e487b7100000000000000000000000000000000000000000000000000000000600052602260045260246000fd5b7f4e487b7100000000000000000000000000000000000000000000000000000000600052604160045260246000fd5b600080fd5b600080fd5b600080fd5b600080fd5b6000601f19601f8301169050919050565b7f45524332303a207472616e7366657220746f20746865207a65726f206164647260008201527f6573730000000000000000000000000000000000000000000000000000000000602082015250565b7f455243313336333a20617070726f76652061206e6f6e20636f6e74726163742060008201527f6164647265737300000000000000000000000000000000000000000000000000602082015250565b7f45524332303a20617070726f766520746f20746865207a65726f20616464726560008201527f7373000000000000000000000000000000000000000000000000000000000000602082015250565b7f45524332303a20696e73756666696369656e7420616c6c6f77616e6365000000600082015250565b7f556e6b6e6f776e2066756e6374696f6e2063616c6c0000000000000000000000600082015250565b7f45524332303a207472616e7366657220616d6f756e742065786365656473206260008201527f616c616e63650000000000000000000000000000000000000000000000000000602082015250565b7f455243313336333a20617070726f76652061206e6f6e2045524331333633537060008201527f656e64657220696d706c656d656e746572000000000000000000000000000000602082015250565b7f455243313336333a207370656e6465722072657475726e65642077726f6e672060008201527f6461746100000000000000000000000000000000000000000000000000000000602082015250565b7f45524332303a207472616e736665722066726f6d20746865207a65726f20616460008201527f6472657373000000000000000000000000000000000000000000000000000000602082015250565b7f45524332303a20617070726f76652066726f6d20746865207a65726f2061646460008201527f7265737300000000000000000000000000000000000000000000000000000000602082015250565b7f455243313336333a207472616e7366657220746f206e6f6e20636f6e7472616360008201527f7420616464726573730000000000000000000000000000000000000000000000602082015250565b7f455243313336333a2072656365697665722072657475726e65642077726f6e6760008201527f2064617461000000000000000000000000000000000000000000000000000000602082015250565b7f45524332303a2064656372656173656420616c6c6f77616e63652062656c6f7760008201527f207a65726f000000000000000000000000000000000000000000000000000000602082015250565b7f455243313336333a207472616e7366657220746f206e6f6e204552433133363360008201527f526563656976657220696d706c656d656e746572000000000000000000000000602082015250565b61216581611b7e565b811461217057600080fd5b50565b61217c81611b9c565b811461218757600080fd5b50565b61219381611be8565b811461219e57600080fd5b5056fea26469706673582212208e2606590987a38096c9832ae93feaf9c1545f13e50e6d2dcb165eecb48b7bc764736f6c63430008070033",
  "linkReferences": {},
  "deployedLinkReferences": {}
}